{"abi":[{"type":"constructor","inputs":[],"stateMutability":"nonpayable"},{"type":"function","name":"MAX_LEAVES","inputs":[],"outputs":[{"name":"","type":"uint256","internalType":"uint256"}],"stateMutability":"view"},{"type":"function","name":"aggSeq","inputs":[],"outputs":[{"name":"","type":"uint64","internalType":"uint64"}],"stateMutability":"view"},{"type":"function","name":"allowInitializePath","inputs":[{"name":"origin","type":"tuple","internalType":"struct Origin","components":[{"name":"srcEid","type":"uint32","internalType":"uint32"},{"name":"sender","type":"bytes32","internalType":"bytes32"},{"name":"nonce","type":"uint64","internalType":"uint64"}]}],"outputs":[{"name":"","type":"bool","internalType":"bool"}],"stateMutability":"view"},{"type":"function","name":"broadcast","inputs":[{"name":"targetEids","type":"uint32[]","internalType":"uint32[]"},{"name":"lzOptions","type":"bytes","internalType":"bytes"}],"outputs":[],"stateMutability":"payable"},{"type":"function","name":"eidToPosition","inputs":[{"name":"","type":"uint32","internalType":"uint32"}],"outputs":[{"name":"","type":"uint256","internalType":"uint256"}],"stateMutability":"view"},{"type":"function","name":"endpoint","inputs":[],"outputs":[{"name":"","type":"address","internalType":"contract ILayerZeroEndpointV2"}],"stateMutability":"view"},{"type":"function","name":"getTokenInfos","inputs":[],"outputs":[{"name":"infos","type":"tuple[]","internalType":"struct Hub.TokenInfo[]","components":[{"name":"chainId","type":"uint64","internalType":"uint64"},{"name":"eid","type":"uint32","internalType":"uint32"},{"name":"verifier","type":"address","internalType":"address"},{"name":"token","type":"address","internalType":"address"}]}],"stateMutability":"view"},{"type":"function","name":"initialize","inputs":[{"name":"endpoint","type":"address","internalType":"address"},{"name":"delegate","type":"address","internalType":"address"}],"outputs":[],"stateMutability":"nonpayable"},{"type":"function","name":"isComposeMsgSender","inputs":[{"name":"","type":"tuple","internalType":"struct Origin","components":[{"name":"srcEid","type":"uint32","internalType":"uint32"},{"name":"sender","type":"bytes32","internalType":"bytes32"},{"name":"nonce","type":"uint64","internalType":"uint64"}]},{"name":"","type":"bytes","internalType":"bytes"},{"name":"_sender","type":"address","internalType":"address"}],"outputs":[{"name":"","type":"bool","internalType":"bool"}],"stateMutability":"view"},{"type":"function","name":"isUpToDate","inputs":[],"outputs":[{"name":"","type":"bool","internalType":"bool"}],"stateMutability":"view"},{"type":"function","name":"lzReceive","inputs":[{"name":"origin","type":"tuple","internalType":"struct Origin","components":[{"name":"srcEid","type":"uint32","internalType":"uint32"},{"name":"sender","type":"bytes32","internalType":"bytes32"},{"name":"nonce","type":"uint64","internalType":"uint64"}]},{"name":"guid","type":"bytes32","internalType":"bytes32"},{"name":"payload","type":"bytes","internalType":"bytes"},{"name":"executor","type":"address","internalType":"address"},{"name":"extraData","type":"bytes","internalType":"bytes"}],"outputs":[],"stateMutability":"payable"},{"type":"function","name":"nextNonce","inputs":[{"name":"","type":"uint32","internalType":"uint32"},{"name":"","type":"bytes32","internalType":"bytes32"}],"outputs":[{"name":"nonce","type":"uint64","internalType":"uint64"}],"stateMutability":"view"},{"type":"function","name":"oAppVersion","inputs":[],"outputs":[{"name":"senderVersion","type":"uint64","internalType":"uint64"},{"name":"receiverVersion","type":"uint64","internalType":"uint64"}],"stateMutability":"view"},{"type":"function","name":"owner","inputs":[],"outputs":[{"name":"","type":"address","internalType":"address"}],"stateMutability":"view"},{"type":"function","name":"peers","inputs":[{"name":"eid","type":"uint32","internalType":"uint32"}],"outputs":[{"name":"peer","type":"bytes32","internalType":"bytes32"}],"stateMutability":"view"},{"type":"function","name":"proxiableUUID","inputs":[],"outputs":[{"name":"","type":"bytes32","internalType":"bytes32"}],"stateMutability":"view"},{"type":"function","name":"quoteBroadcast","inputs":[{"name":"targetEids","type":"uint32[]","internalType":"uint32[]"},{"name":"lzOptions","type":"bytes","internalType":"bytes"}],"outputs":[{"name":"totalNativeFee","type":"uint256","internalType":"uint256"}],"stateMutability":"view"},{"type":"function","name":"registerToken","inputs":[{"name":"info","type":"tuple","internalType":"struct Hub.TokenInfo","components":[{"name":"chainId","type":"uint64","internalType":"uint64"},{"name":"eid","type":"uint32","internalType":"uint32"},{"name":"verifier","type":"address","internalType":"address"},{"name":"token","type":"address","internalType":"address"}]}],"outputs":[],"stateMutability":"nonpayable"},{"type":"function","name":"renounceOwnership","inputs":[],"outputs":[],"stateMutability":"nonpayable"},{"type":"function","name":"setDelegate","inputs":[{"name":"_delegate","type":"address","internalType":"address"}],"outputs":[],"stateMutability":"nonpayable"},{"type":"function","name":"setPeer","inputs":[{"name":"_eid","type":"uint32","internalType":"uint32"},{"name":"_peer","type":"bytes32","internalType":"bytes32"}],"outputs":[],"stateMutability":"nonpayable"},{"type":"function","name":"tokenInfos","inputs":[{"name":"","type":"uint256","internalType":"uint256"}],"outputs":[{"name":"chainId","type":"uint64","internalType":"uint64"},{"name":"eid","type":"uint32","internalType":"uint32"},{"name":"verifier","type":"address","internalType":"address"},{"name":"token","type":"address","internalType":"address"}],"stateMutability":"view"},{"type":"function","name":"transferOwnership","inputs":[{"name":"newOwner","type":"address","internalType":"address"}],"outputs":[],"stateMutability":"nonpayable"},{"type":"function","name":"transferRoots","inputs":[{"name":"","type":"uint256","internalType":"uint256"}],"outputs":[{"name":"","type":"uint256","internalType":"uint256"}],"stateMutability":"view"},{"type":"function","name":"transferTreeIndices","inputs":[{"name":"","type":"uint256","internalType":"uint256"}],"outputs":[{"name":"","type":"uint64","internalType":"uint64"}],"stateMutability":"view"},{"type":"function","name":"updateToken","inputs":[{"name":"info","type":"tuple","internalType":"struct Hub.TokenInfo","components":[{"name":"chainId","type":"uint64","internalType":"uint64"},{"name":"eid","type":"uint32","internalType":"uint32"},{"name":"verifier","type":"address","internalType":"address"},{"name":"token","type":"address","internalType":"address"}]}],"outputs":[],"stateMutability":"nonpayable"},{"type":"function","name":"upgradeTo","inputs":[{"name":"newImplementation","type":"address","internalType":"address"}],"outputs":[],"stateMutability":"nonpayable"},{"type":"function","name":"upgradeToAndCall","inputs":[{"name":"newImplementation","type":"address","internalType":"address"},{"name":"data","type":"bytes","internalType":"bytes"}],"outputs":[],"stateMutability":"payable"},{"type":"function","name":"zeroHash","inputs":[{"name":"","type":"uint256","internalType":"uint256"}],"outputs":[{"name":"","type":"uint256","internalType":"uint256"}],"stateMutability":"view"},{"type":"event","name":"AdminChanged","inputs":[{"name":"previousAdmin","type":"address","indexed":false,"internalType":"address"},{"name":"newAdmin","type":"address","indexed":false,"internalType":"address"}],"anonymous":false},{"type":"event","name":"AggregationRootUpdated","inputs":[{"name":"root","type":"uint256","indexed":true,"internalType":"uint256"},{"name":"aggSeq","type":"uint64","indexed":true,"internalType":"uint64"},{"name":"transferRootsSnapshot","type":"uint256[]","indexed":false,"internalType":"uint256[]"},{"name":"transferTreeIndicesSnapshot","type":"uint64[]","indexed":false,"internalType":"uint64[]"}],"anonymous":false},{"type":"event","name":"BeaconUpgraded","inputs":[{"name":"beacon","type":"address","indexed":true,"internalType":"address"}],"anonymous":false},{"type":"event","name":"Initialized","inputs":[{"name":"version","type":"uint8","indexed":false,"internalType":"uint8"}],"anonymous":false},{"type":"event","name":"OwnershipTransferred","inputs":[{"name":"previousOwner","type":"address","indexed":true,"internalType":"address"},{"name":"newOwner","type":"address","indexed":true,"internalType":"address"}],"anonymous":false},{"type":"event","name":"PeerSet","inputs":[{"name":"eid","type":"uint32","indexed":false,"internalType":"uint32"},{"name":"peer","type":"bytes32","indexed":false,"internalType":"bytes32"}],"anonymous":false},{"type":"event","name":"TokenRegistered","inputs":[{"name":"eid","type":"uint32","indexed":true,"internalType":"uint32"},{"name":"index","type":"uint256","indexed":true,"internalType":"uint256"},{"name":"chainId","type":"uint64","indexed":false,"internalType":"uint64"},{"name":"token","type":"address","indexed":false,"internalType":"address"},{"name":"verifier","type":"address","indexed":false,"internalType":"address"}],"anonymous":false},{"type":"event","name":"TokenUpdated","inputs":[{"name":"eid","type":"uint32","indexed":true,"internalType":"uint32"},{"name":"index","type":"uint256","indexed":true,"internalType":"uint256"},{"name":"chainId","type":"uint64","indexed":false,"internalType":"uint64"},{"name":"token","type":"address","indexed":false,"internalType":"address"},{"name":"verifier","type":"address","indexed":false,"internalType":"address"}],"anonymous":false},{"type":"event","name":"TransferRootUpdated","inputs":[{"name":"eid","type":"uint32","indexed":true,"internalType":"uint32"},{"name":"index","type":"uint256","indexed":true,"internalType":"uint256"},{"name":"newRoot","type":"uint256","indexed":false,"internalType":"uint256"}],"anonymous":false},{"type":"event","name":"Upgraded","inputs":[{"name":"implementation","type":"address","indexed":true,"internalType":"address"}],"anonymous":false},{"type":"error","name":"FeeRefundFailed","inputs":[{"name":"amount","type":"uint256","internalType":"uint256"}]},{"type":"error","name":"HubCapacityReached","inputs":[]},{"type":"error","name":"InvalidChainId","inputs":[]},{"type":"error","name":"InvalidDelegate","inputs":[]},{"type":"error","name":"InvalidEndpointCall","inputs":[]},{"type":"error","name":"InvalidPayloadLength","inputs":[{"name":"length","type":"uint256","internalType":"uint256"}]},{"type":"error","name":"LayerZeroTokenFeeUnsupported","inputs":[{"name":"eid","type":"uint32","internalType":"uint32"},{"name":"lzTokenFee","type":"uint256","internalType":"uint256"}]},{"type":"error","name":"LzTokenUnavailable","inputs":[]},{"type":"error","name":"NativeFeeMismatch","inputs":[{"name":"provided","type":"uint256","internalType":"uint256"},{"name":"required","type":"uint256","internalType":"uint256"}]},{"type":"error","name":"NoPeer","inputs":[{"name":"eid","type":"uint32","internalType":"uint32"}]},{"type":"error","name":"NotEnoughNative","inputs":[{"name":"msgValue","type":"uint256","internalType":"uint256"}]},{"type":"error","name":"OnlyEndpoint","inputs":[{"name":"addr","type":"address","internalType":"address"}]},{"type":"error","name":"OnlyPeer","inputs":[{"name":"eid","type":"uint32","internalType":"uint32"},{"name":"sender","type":"bytes32","internalType":"bytes32"}]},{"type":"error","name":"TokenAlreadyRegistered","inputs":[{"name":"eid","type":"uint32","internalType":"uint32"}]},{"type":"error","name":"TokenNotRegistered","inputs":[{"name":"eid","type":"uint32","internalType":"uint32"}]},{"type":"error","name":"ZeroToken","inputs":[]},{"type":"error","name":"ZeroVerifier","inputs":[]}],"bytecode":{"object":"0x60a060405230608052348015610013575f5ffd5b5061001c610021565b6100dd565b5f54610100900460ff161561008c5760405162461bcd60e51b815260206004820152602760248201527f496e697469616c697a61626c653a20636f6e747261637420697320696e697469604482015266616c697a696e6760c81b606482015260840160405180910390fd5b5f5460ff908116146100db575f805460ff191660ff9081179091556040519081527f7f26b83ff96e1f2b6a682f133852f6798a09c465da95921460cefb38474024989060200160405180910390a15b565b6080516133e46101115f395f8181610b6801528181610ba801528181610d7b01528181610dbb0152610e4801526133e45ff3fe6080604052600436106101ba575f3560e01c80635e280f11116100f25780638e3a428e11610092578063ca5eb5e111610062578063ca5eb5e11461053d578063cab45f121461055c578063f2fde38b1461056f578063ff7bd03d1461058e575f5ffd5b80638e3a428e146104b45780638f84778d146104d3578063bb0b6a53146104f2578063c0d03dd41461051d575f5ffd5b80637c13774b116100cd5780637c13774b146103fc5780637d25a05e1461045957806382413eac146104785780638da5cb5b14610497575f5ffd5b80635e280f111461039257806362b32f58146103c9578063715018a6146103e8575f5ffd5b80633659cfe61161015d578063485cc95511610138578063485cc955146103155780634f1ef2861461033457806352d1902d14610347578063534dc25e1461035b575f5ffd5b80633659cfe6146102a657806341b4631e146102c5578063442bde04146102e4575f5ffd5b8063193695eb11610198578063193695eb1461021b5780632dd992be1461023c578063327a75d2146102685780633400288b14610287575f5ffd5b8063082febf0146101be57806313137d65146101e557806317442b70146101fa575b5f5ffd5b3480156101c9575f5ffd5b506101d2604081565b6040519081526020015b60405180910390f35b6101f86101f3366004612a3f565b6105ad565b005b348015610205575f5ffd5b50604080516001815260026020820152016101dc565b348015610226575f5ffd5b5061022f61074e565b6040516101dc9190612ad9565b348015610247575f5ffd5b506101d2610256366004612b6d565b6101926020525f908152604090205481565b348015610273575f5ffd5b506101f8610282366004612b88565b61086d565b348015610292575f5ffd5b506101f86102a1366004612ba1565b610b48565b3480156102b1575f5ffd5b506101f86102c0366004612bcb565b610b5e565b3480156102d0575f5ffd5b506101d26102df366004612be6565b610c3b565b3480156102ef575f5ffd5b5061019a5461030590600160401b900460ff1681565b60405190151581526020016101dc565b348015610320575f5ffd5b506101f861032f366004612bfd565b610c52565b6101f8610342366004612c78565b610d71565b348015610352575f5ffd5b506101d2610e3c565b348015610366575f5ffd5b5061037a610375366004612be6565b610eed565b6040516001600160401b0390911681526020016101dc565b34801561039d575f5ffd5b506065546103b1906001600160a01b031681565b6040516001600160a01b0390911681526020016101dc565b3480156103d4575f5ffd5b506101f86103e3366004612b88565b610f28565b3480156103f3575f5ffd5b506101f86110f7565b348015610407575f5ffd5b5061041b610416366004612be6565b61110a565b604080516001600160401b03909516855263ffffffff90931660208501526001600160a01b03918216928401929092521660608201526080016101dc565b348015610464575f5ffd5b5061037a610473366004612ba1565b611162565b348015610483575f5ffd5b50610305610492366004612d1d565b61116a565b3480156104a2575f5ffd5b506033546001600160a01b03166103b1565b3480156104bf575f5ffd5b506101d26104ce366004612d7f565b61117f565b3480156104de575f5ffd5b506101d26104ed366004612be6565b61125f565b3480156104fd575f5ffd5b506101d261050c366004612b6d565b60666020525f908152604090205481565b348015610528575f5ffd5b5061019a5461037a906001600160401b031681565b348015610548575f5ffd5b506101f8610557366004612bcb565b61127f565b6101f861056a366004612d7f565b61130b565b34801561057a575f5ffd5b506101f8610589366004612bcb565b61156a565b348015610599575f5ffd5b506103056105a8366004612e17565b6115e0565b6065546001600160a01b031633146105df576040516391ac5e4f60e01b81523360048201526024015b60405180910390fd5b6101925f6105f060208a018a612b6d565b63ffffffff1663ffffffff1681526020019081526020015f20545f0361063f5761061d6020880188612b6d565b6040516395373a4d60e01b815263ffffffff90911660048201526024016105d6565b6040841461066357604051637b0ef91960e11b8152600481018590526024016105d6565b5f60668161067460208b018b612b6d565b63ffffffff16815260208101919091526040015f2054905080156106db57876020013581146106d6576106aa6020890189612b6d565b60405163309afaf360e21b815263ffffffff9091166004820152602089013560248201526044016105d6565b610735565b5f6106ee6033546001600160a01b031690565b6001600160a01b03169050602089013581146107335761071160208a018a612b6d565b60405163f6ff4fb760e01b815263ffffffff90911660048201526024016105d6565b505b61074488888888888888611614565b5050505050505050565b61019154606090806001600160401b0381111561076d5761076d612c34565b6040519080825280602002602001820160405280156107bd57816020015b604080516080810182525f8082526020808301829052928201819052606082015282525f1990920191018161078b5790505b5091505f5b818110156108685761019181815481106107de576107de612e31565b5f91825260209182902060408051608081018252600290930290910180546001600160401b038116845263ffffffff600160401b820416948401949094526001600160a01b03600160601b909404841691830191909152600101549091166060820152835184908390811061085557610855612e31565b60209081029190910101526001016107c2565b505090565b610875611799565b5f6108866060830160408401612bcb565b6001600160a01b0316036108ad57604051634a8bdce360e01b815260040160405180910390fd5b5f6108be6080830160608401612bcb565b6001600160a01b0316036108e55760405163ad1991f560e01b815260040160405180910390fd5b6108f26020820182612e59565b6001600160401b03165f0361091a57604051633d23e4d160e11b815260040160405180910390fd5b6101925f61092e6040840160208501612b6d565b63ffffffff16815260208101919091526040015f20541561097b576109596040820160208301612b6d565b6040516303ac826d60e11b815263ffffffff90911660048201526024016105d6565b61018f5460401161099f5760405163aae9790560e01b815260040160405180910390fd5b61018f805460018082019092555f7f77f3f3fc840536973a5d96a2bc039249e1d449fdef2adeb2ff7a19910de0ff24820181905561019080548085019091557fbd5c86c9fbaa47a598cf55ad1cee7a1d8f8450857cb10e0f122503b8c0e652436004820401805460039092166008026101000a6001600160401b03021990911690556101918054938401815590529082907ffb4a0ff48df6de8777afc824e4cbf267beb8602db7c5a7456c954593226c1fd5600290910201610a618282612e74565b50610a6f9050816001612f48565b6101925f610a836040860160208701612b6d565b63ffffffff16815260208082019290925260409081015f209290925561019a805460ff60401b191690558291610abe91908501908501612b6d565b63ffffffff167f42fe6078ecf798fc0c6f4af46726da5c84c10a513e502b345ef1f709383485ff610af26020860186612e59565b610b026080870160608801612bcb565b610b126060880160408901612bcb565b604080516001600160401b0390941684526001600160a01b03928316602085015291169082015260600160405180910390a35050565b610b50611799565b610b5a82826117f3565b5050565b6001600160a01b037f0000000000000000000000000000000000000000000000000000000000000000163003610ba65760405162461bcd60e51b81526004016105d690612f5b565b7f00000000000000000000000000000000000000000000000000000000000000006001600160a01b0316610bee5f5160206133685f395f51905f52546001600160a01b031690565b6001600160a01b031614610c145760405162461bcd60e51b81526004016105d690612fa7565b610c1d81611847565b604080515f80825260208201909252610c389183919061184f565b50565b6101938160078110610c4b575f80fd5b0154905081565b5f54610100900460ff1615808015610c7057505f54600160ff909116105b80610c895750303b158015610c8957505f5460ff166001145b610cec5760405162461bcd60e51b815260206004820152602e60248201527f496e697469616c697a61626c653a20636f6e747261637420697320616c72656160448201526d191e481a5b9a5d1a585b1a5e995960921b60648201526084016105d6565b5f805460ff191660011790558015610d0d575f805461ff0019166101001790555b610d1783836119b9565b610d1f6119e9565b610d27611a0f565b8015610d6c575f805461ff0019169055604051600181527f7f26b83ff96e1f2b6a682f133852f6798a09c465da95921460cefb38474024989060200160405180910390a15b505050565b6001600160a01b037f0000000000000000000000000000000000000000000000000000000000000000163003610db95760405162461bcd60e51b81526004016105d690612f5b565b7f00000000000000000000000000000000000000000000000000000000000000006001600160a01b0316610e015f5160206133685f395f51905f52546001600160a01b031690565b6001600160a01b031614610e275760405162461bcd60e51b81526004016105d690612fa7565b610e3082611847565b610b5a8282600161184f565b5f306001600160a01b037f00000000000000000000000000000000000000000000000000000000000000001614610edb5760405162461bcd60e51b815260206004820152603860248201527f555550535570677261646561626c653a206d757374206e6f742062652063616c60448201527f6c6564207468726f7567682064656c656761746563616c6c000000000000000060648201526084016105d6565b505f5160206133685f395f51905f5290565b6101908181548110610efd575f80fd5b905f5260205f209060049182820401919006600802915054906101000a90046001600160401b031681565b610f30611799565b5f610f416060830160408401612bcb565b6001600160a01b031603610f6857604051634a8bdce360e01b815260040160405180910390fd5b5f610f796080830160608401612bcb565b6001600160a01b031603610fa05760405163ad1991f560e01b815260040160405180910390fd5b610fad6020820182612e59565b6001600160401b03165f03610fd557604051633d23e4d160e11b815260040160405180910390fd5b5f61019281610fea6040850160208601612b6d565b63ffffffff1663ffffffff1681526020019081526020015f20549050805f0361101d5761061d6040830160208401612b6d565b5f611029600183612ff3565b905082610191828154811061104057611040612e31565b905f5260205f20906002020181816110589190612e74565b5081905061106c6040850160208601612b6d565b63ffffffff167ff254892b05ecf2fbbe2e66c39a4bebc6e86a32b0e7d4d0385643284e8fececaf6110a06020870187612e59565b6110b06080880160608901612bcb565b6110c06060890160408a01612bcb565b604080516001600160401b0390941684526001600160a01b03928316602085015291169082015260600160405180910390a3505050565b6110ff611799565b6111085f611a98565b565b610191818154811061111a575f80fd5b5f918252602090912060029091020180546001909101546001600160401b038216925063ffffffff600160401b830416916001600160a01b03600160601b9091048116911684565b5f5b92915050565b6001600160a01b03811630145b949350505050565b5f5f83838080601f0160208091040260200160405190810160405280939291908181526020018383808284375f920182905250604051949550936111d993508492506001915060200191825260ff16602082015260400190565b60408051601f19818403018152919052905061125487878385826001600160401b0381111561120a5761120a612c34565b60405190808252806020026020018201604052801561124e57816020015b604080518082019091525f80825260208201528152602001906001900390816112285790505b50611ae9565b979650505050505050565b61018f818154811061126f575f80fd5b5f91825260209091200154905081565b611287611799565b6001600160a01b0381166112ae57604051632d618d8160e21b815260040160405180910390fd5b60655460405163ca5eb5e160e01b81526001600160a01b0383811660048301529091169063ca5eb5e1906024015f604051808303815f87803b1580156112f2575f5ffd5b505af1158015611304573d5f5f3e3d5ffd5b5050505050565b5f611314611be8565b90505f83838080601f0160208091040260200160405190810160405280939291908181526020018383808284375f92018290525093945088925050506001600160401b0381111561136757611367612c34565b6040519080825280602002602001820160405280156113ab57816020015b604080518082019091525f80825260208201528152602001906001900390816113855790505b5090505f6113c0888886608001518686611ae9565b9050803410156113ec576040516311681bff60e21b8152346004820152602481018290526044016105d6565b5f6113f78234612ff3565b606086015161019a805467ffffffffffffffff19166001600160401b0390921691909117905590505f5b88811015611482576114798a8a8381811061143e5761143e612e31565b90506020020160208101906114539190612b6d565b87608001518787858151811061146b5761146b612e31565b602002602001015133611e80565b50600101611421565b5080156114f4576040515f90339083908381818185875af1925050503d805f81146114c8576040519150601f19603f3d011682016040523d82523d5f602084013e6114cd565b606091505b50509050806114f25760405163c3b6177360e01b8152600481018390526024016105d6565b505b61019a805460ff60401b1916600160401b17905560608501516040808701518751602089015192516001600160401b039094169391927fc45d64a624f5ea943d296c2cc396d123da7acdc7e56cb5fa4790393f70b0857c92611557929190613006565b60405180910390a3505050505050505050565b611572611799565b6001600160a01b0381166115d75760405162461bcd60e51b815260206004820152602660248201527f4f776e61626c653a206e6577206f776e657220697320746865207a65726f206160448201526564647265737360d01b60648201526084016105d6565b610c3881611a98565b5f6020820180359060669083906115f79086612b6d565b63ffffffff16815260208101919091526040015f20541492915050565b5f6101928161162660208b018b612b6d565b63ffffffff1663ffffffff1681526020019081526020015f20549050805f036116565761061d6020890189612b6d565b6040851461167a57604051637b0ef91960e11b8152600481018690526024016105d6565b5f806116888789018961308f565b90925090505f611699600185612ff3565b90505f61018f82815481106116b0576116b0612e31565b905f5260205f20015490508361018f83815481106116d0576116d0612e31565b905f5260205f2001819055508261019083815481106116f1576116f1612e31565b905f5260205f2090600491828204019190066008026101000a8154816001600160401b0302191690836001600160401b0316021790555083811461173e5761019a805460ff60401b191690555b8161174c60208e018e612b6d565b63ffffffff167f95cdbf55cd3d66022859359197d7a3fc03e1ce5507a81e5deaf336e518080ee98660405161178391815260200190565b60405180910390a3505050505050505050505050565b6033546001600160a01b031633146111085760405162461bcd60e51b815260206004820181905260248201527f4f776e61626c653a2063616c6c6572206973206e6f7420746865206f776e657260448201526064016105d6565b63ffffffff82165f81815260666020908152604091829020849055815192835282018390527f238399d427b947898edb290f5ff0f9109849b1c3ba196a42e35f00c50a54b98b910160405180910390a15050565b610c38611799565b7f4910fdfa16fed3260ed0e7147f7cc6da11a60208b5b9406d12a635614ffd91435460ff161561188257610d6c83611f63565b826001600160a01b03166352d1902d6040518163ffffffff1660e01b8152600401602060405180830381865afa9250505080156118dc575060408051601f3d908101601f191682019092526118d9918101906130b2565b60015b61193f5760405162461bcd60e51b815260206004820152602e60248201527f45524331393637557067726164653a206e657720696d706c656d656e7461746960448201526d6f6e206973206e6f74205555505360901b60648201526084016105d6565b5f5160206133685f395f51905f5281146119ad5760405162461bcd60e51b815260206004820152602960248201527f45524331393637557067726164653a20756e737570706f727465642070726f786044820152681a58589b195555525160ba1b60648201526084016105d6565b50610d6c838383611ffe565b5f54610100900460ff166119df5760405162461bcd60e51b81526004016105d6906130c9565b610b5a8282612028565b5f54610100900460ff166111085760405162461bcd60e51b81526004016105d6906130c9565b5f54610100900460ff16611a355760405162461bcd60e51b81526004016105d6906130c9565b5f611a3e612126565b90505f5b6007811015611a8057818160078110611a5d57611a5d612e31565b60200201516101938260078110611a7657611a76612e31565b0155600101611a42565b505061019a805460ff60401b1916600160401b179055565b603380546001600160a01b038381166001600160a01b0319831681179093556040519116919082907f8be0079c531659141344cd1fd0a4f28419497f9722a3daafe3b4186f6b6457e0905f90a35050565b5f84815b81811015611bdd575f888883818110611b0857611b08612e31565b9050602002016020810190611b1d9190612b6d565b63ffffffff81165f908152610192602052604081205491925003611b5c576040516395373a4d60e01b815263ffffffff821660048201526024016105d6565b5f611b698289895f6121b1565b905080602001515f14611ba457602081015160405163df001b1d60e01b815263ffffffff8416600482015260248101919091526044016105d6565b80868481518110611bb757611bb7612e31565b60209081029190910101528051611bce9086612f48565b94505050806001019050611aed565b505095945050505050565b611c216040518060a0016040528060608152602001606081526020015f81526020015f6001600160401b03168152602001606081525090565b61018f54806001600160401b03811115611c3d57611c3d612c34565b604051908082528060200260200182016040528015611c66578160200160208202803683370190505b508252806001600160401b03811115611c8157611c81612c34565b604051908082528060200260200182016040528015611caa578160200160208202803683370190505b5060208301525f816001600160401b03811115611cc957611cc9612c34565b604051908082528060200260200182016040528015611cf2578160200160208202803683370190505b5090505f5b82811015611dd2575f61018f8281548110611d1457611d14612e31565b905f5260205f200154905080855f01518381518110611d3557611d35612e31565b60200260200101818152505080838381518110611d5457611d54612e31565b6020026020010181815250506101908281548110611d7457611d74612e31565b905f5260205f2090600491828204019190066008029054906101000a90046001600160401b031685602001518381518110611db157611db1612e31565b6001600160401b039092166020928302919091019091015250600101611cf7565b506040805160e08101918290525f916101939060079082845b815481526020019060010190808311611deb5750505050509050611e0f8282612276565b604085015261019a54611e2c906001600160401b03166001613114565b6001600160401b0316606085018190526040808601519051611e6392906020019182526001600160401b0316602082015260400190565b604051602081830303815290604052846080018190525050505090565b611e88612955565b5f611e95845f01516123d8565b602085015190915015611eaf57611eaf84602001516123fc565b6065546040805160a0810190915263ffffffff891681526001600160a01b0390911690632637a45090839060208101611ee78c6124ac565b81526020018a81526020018981526020015f8960200151111515815250866040518463ffffffff1660e01b8152600401611f22929190613161565b60806040518083038185885af1158015611f3e573d5f5f3e3d5ffd5b50505050506040513d601f19601f820116820180604052508101906112549190613225565b6001600160a01b0381163b611fd05760405162461bcd60e51b815260206004820152602d60248201527f455243313936373a206e657720696d706c656d656e746174696f6e206973206e60448201526c1bdd08184818dbdb9d1c9858dd609a1b60648201526084016105d6565b5f5160206133685f395f51905f5280546001600160a01b0319166001600160a01b0392909216919091179055565b612007836124e7565b5f825111806120135750805b15610d6c576120228383612526565b50505050565b5f54610100900460ff1661204e5760405162461bcd60e51b81526004016105d6906130c9565b6001600160a01b038216612075576040516307def60560e11b815260040160405180910390fd5b6001600160a01b03811661209c57604051632d618d8160e21b815260040160405180910390fd5b6120a4612552565b606580546001600160a01b0319166001600160a01b0384161790556120c881611a98565b60655460405163ca5eb5e160e01b81526001600160a01b0383811660048301529091169063ca5eb5e1906024015f604051808303815f87803b15801561210c575f5ffd5b505af115801561211e573d5f5f3e3d5ffd5b505050505050565b61212e612995565b5f815260015b600681116121ad576121868261214b600184612ff3565b6007811061215b5761215b612e31565b60200201518361216c600185612ff3565b6007811061217c5761217c612e31565b6020020151612580565b82826007811061219857612198612e31565b60200201526121a68161328c565b9050612134565b5090565b604080518082019091525f80825260208201526065546040805160a0810190915263ffffffff871681526001600160a01b039091169063ddc28c5890602081016121fa896124ac565b8152602001878152602001868152602001851515815250306040518363ffffffff1660e01b815260040161222f929190613161565b6040805180830381865afa158015612249573d5f5f3e3d5ffd5b505050506040513d601f19601f8201168201806040525081019061226d91906132a4565b95945050505050565b81515f9080820361228d57505060c0810151611164565b5f5b6001821115612383575f60016122a58482612f48565b901c90505f5b81811015612378575f876122c08360026132be565b815181106122d0576122d0612e31565b602002602001015190505f858360026122e991906132be565b6122f4906001612f48565b106123155787856007811061230b5761230b612e31565b6020020151612345565b886123218460026132be565b61232c906001612f48565b8151811061233c5761233c612e31565b60200260200101515b90506123518282612580565b89848151811061236357612363612e31565b602090810291909101015250506001016122ab565b50915060010161228f565b5f855f8151811061239657612396612e31565b602002602001015190505f8290505b60068110156123ce576123c48287836007811061217c5761217c612e31565b91506001016123a5565b5095945050505050565b5f813410156121ad576040516304fb820960e51b81523460048201526024016105d6565b6065546040805163393f876560e21b815290515f926001600160a01b03169163e4fe1d949160048083019260209291908290030181865afa158015612443573d5f5f3e3d5ffd5b505050506040513d601f19601f8201168201806040525081019061246791906132d5565b90506001600160a01b038116612490576040516329b99a9560e11b815260040160405180910390fd5b606554610b5a906001600160a01b038381169133911685612609565b63ffffffff81165f90815260666020526040812054806111645760405163f6ff4fb760e01b815263ffffffff841660048201526024016105d6565b6124f081611f63565b6040516001600160a01b038216907fbc7cd75a20ee27fd9adebab32041f755214dbc6bffa90cc0225b39da2e5c2d3b905f90a250565b606061254b838360405180606001604052806027815260200161338860279139612663565b9392505050565b5f54610100900460ff166125785760405162461bcd60e51b81526004016105d6906130c9565b6111086126d7565b5f6125896129b3565b83815260208101839052604051632b0aac7f60e11b815273__$a2daaad8940c9006af3f1557205ebe532d$__9063561558fe906125ca9084906004016132f0565b602060405180830381865af41580156125e5573d5f5f3e3d5ffd5b505050506040513d601f19601f8201168201806040525081019061117791906130b2565b604080516001600160a01b0385811660248301528416604482015260648082018490528251808303909101815260849091019091526020810180516001600160e01b03166323b872dd60e01b179052612022908590612706565b60605f5f856001600160a01b03168560405161267f9190613320565b5f60405180830381855af49150503d805f81146126b7576040519150601f19603f3d011682016040523d82523d5f602084013e6126bc565b606091505b50915091506126cd868383876127d9565b9695505050505050565b5f54610100900460ff166126fd5760405162461bcd60e51b81526004016105d6906130c9565b61110833611a98565b5f61275a826040518060400160405280602081526020017f5361666545524332303a206c6f772d6c6576656c2063616c6c206661696c6564815250856001600160a01b03166128519092919063ffffffff16565b905080515f148061277a57508080602001905181019061277a9190613336565b610d6c5760405162461bcd60e51b815260206004820152602a60248201527f5361666545524332303a204552433230206f7065726174696f6e20646964206e6044820152691bdd081cdd58d8d9595960b21b60648201526084016105d6565b606083156128475782515f03612840576001600160a01b0385163b6128405760405162461bcd60e51b815260206004820152601d60248201527f416464726573733a2063616c6c20746f206e6f6e2d636f6e747261637400000060448201526064016105d6565b5081611177565b611177838361285f565b606061117784845f85612889565b81511561286f5781518083602001fd5b8060405162461bcd60e51b81526004016105d69190613355565b6060824710156128ea5760405162461bcd60e51b815260206004820152602660248201527f416464726573733a20696e73756666696369656e742062616c616e636520666f6044820152651c8818d85b1b60d21b60648201526084016105d6565b5f5f866001600160a01b031685876040516129059190613320565b5f6040518083038185875af1925050503d805f811461293f576040519150601f19603f3d011682016040523d82523d5f602084013e612944565b606091505b5091509150611254878383876127d9565b60405180606001604052805f81526020015f6001600160401b0316815260200161299060405180604001604052805f81526020015f81525090565b905290565b6040518060e001604052806007906020820280368337509192915050565b60405180604001604052806002906020820280368337509192915050565b5f606082840312156129e1575f5ffd5b50919050565b5f5f83601f8401126129f7575f5ffd5b5081356001600160401b03811115612a0d575f5ffd5b602083019150836020828501011115612a24575f5ffd5b9250929050565b6001600160a01b0381168114610c38575f5ffd5b5f5f5f5f5f5f5f60e0888a031215612a55575f5ffd5b612a5f89896129d1565b96506060880135955060808801356001600160401b03811115612a80575f5ffd5b612a8c8a828b016129e7565b90965094505060a0880135612aa081612a2b565b925060c08801356001600160401b03811115612aba575f5ffd5b612ac68a828b016129e7565b989b979a50959850939692959293505050565b602080825282518282018190525f918401906040840190835b81811015612b5157835180516001600160401b0316845260208082015163ffffffff16818601526040808301516001600160a01b0390811691870191909152606092830151169185019190915290930192608090920191600101612af2565b509095945050505050565b63ffffffff81168114610c38575f5ffd5b5f60208284031215612b7d575f5ffd5b813561254b81612b5c565b5f6080828403128015612b99575f5ffd5b509092915050565b5f5f60408385031215612bb2575f5ffd5b8235612bbd81612b5c565b946020939093013593505050565b5f60208284031215612bdb575f5ffd5b813561254b81612a2b565b5f60208284031215612bf6575f5ffd5b5035919050565b5f5f60408385031215612c0e575f5ffd5b8235612c1981612a2b565b91506020830135612c2981612a2b565b809150509250929050565b634e487b7160e01b5f52604160045260245ffd5b604051601f8201601f191681016001600160401b0381118282101715612c7057612c70612c34565b604052919050565b5f5f60408385031215612c89575f5ffd5b8235612c9481612a2b565b915060208301356001600160401b03811115612cae575f5ffd5b8301601f81018513612cbe575f5ffd5b80356001600160401b03811115612cd757612cd7612c34565b612cea601f8201601f1916602001612c48565b818152866020838501011115612cfe575f5ffd5b816020840160208301375f602083830101528093505050509250929050565b5f5f5f5f60a08587031215612d30575f5ffd5b612d3a86866129d1565b935060608501356001600160401b03811115612d54575f5ffd5b612d60878288016129e7565b9094509250506080850135612d7481612a2b565b939692955090935050565b5f5f5f5f60408587031215612d92575f5ffd5b84356001600160401b03811115612da7575f5ffd5b8501601f81018713612db7575f5ffd5b80356001600160401b03811115612dcc575f5ffd5b8760208260051b8401011115612de0575f5ffd5b6020918201955093508501356001600160401b03811115612dff575f5ffd5b612e0b878288016129e7565b95989497509550505050565b5f60608284031215612e27575f5ffd5b61254b83836129d1565b634e487b7160e01b5f52603260045260245ffd5b6001600160401b0381168114610c38575f5ffd5b5f60208284031215612e69575f5ffd5b813561254b81612e45565b8135612e7f81612e45565b6001600160401b03811690508154816001600160401b031982161783556020840135612eaa81612b5c565b6bffffffff00000000000000008160401b16905080836bffffffffffffffffffffffff1984161717845560408501359150612ee482612a2b565b909117606091821b6bffffffffffffffffffffffff19161782555f90830135612f0c81612a2b565b60019290920180546001600160a01b0319166001600160a01b03909316929092179091555050565b634e487b7160e01b5f52601160045260245ffd5b8082018082111561116457611164612f34565b6020808252602c908201527f46756e6374696f6e206d7573742062652063616c6c6564207468726f7567682060408201526b19195b1959d85d1958d85b1b60a21b606082015260800190565b6020808252602c908201527f46756e6374696f6e206d7573742062652063616c6c6564207468726f7567682060408201526b6163746976652070726f787960a01b606082015260800190565b8181038181111561116457611164612f34565b604080825283519082018190525f9060208501906060840190835b8181101561303f578351835260209384019390920191600101613021565b5050838103602080860191909152855180835291810192508501905f5b818110156130835782516001600160401b031684526020938401939092019160010161305c565b50919695505050505050565b5f5f604083850312156130a0575f5ffd5b823591506020830135612c2981612e45565b5f602082840312156130c2575f5ffd5b5051919050565b6020808252602b908201527f496e697469616c697a61626c653a20636f6e7472616374206973206e6f74206960408201526a6e697469616c697a696e6760a81b606082015260800190565b6001600160401b03818116838216019081111561116457611164612f34565b5f81518084528060208401602086015e5f602082860101526020601f19601f83011685010191505092915050565b6040815263ffffffff8351166040820152602083015160608201525f604084015160a0608084015261319660e0840182613133565b90506060850151603f198483030160a08501526131b38282613133565b60809690960151151560c08501525050506001600160a01b039190911660209091015290565b5f604082840312156131e9575f5ffd5b604080519081016001600160401b038111828210171561320b5761320b612c34565b604052825181526020928301519281019290925250919050565b5f6080828403128015613236575f5ffd5b50604051606081016001600160401b038111828210171561325957613259612c34565b60405282518152602083015161326e81612e45565b602082015261328084604085016131d9565b60408201529392505050565b5f6001820161329d5761329d612f34565b5060010190565b5f604082840312156132b4575f5ffd5b61254b83836131d9565b808202811582820484141761116457611164612f34565b5f602082840312156132e5575f5ffd5b815161254b81612a2b565b6040810181835f5b60028110156133175781518352602092830192909101906001016132f8565b50505092915050565b5f82518060208501845e5f920191825250919050565b5f60208284031215613346575f5ffd5b8151801515811461254b575f5ffd5b602081525f61254b602083018461313356fe360894a13ba1a3210667c828492db98dca3e2076cc3735a920a3ca505d382bbc416464726573733a206c6f772d6c6576656c2064656c65676174652063616c6c206661696c6564a2646970667358221220e000017b587ba5b17ae4bd96e8d3dc6c23a721283d309189247410bb9f0f1e0464736f6c634300081e0033","linkReferences":{"lib/poseidon-solidity/contracts/PoseidonT3.sol":{"PoseidonT3":[{"start":9907,"length":20}]}}},"methodIdentifiers":{"MAX_LEAVES()":"082febf0","aggSeq()":"c0d03dd4","allowInitializePath((uint32,bytes32,uint64))":"ff7bd03d","broadcast(uint32[],bytes)":"cab45f12","eidToPosition(uint32)":"2dd992be","endpoint()":"5e280f11","getTokenInfos()":"193695eb","initialize(address,address)":"485cc955","isComposeMsgSender((uint32,bytes32,uint64),bytes,address)":"82413eac","isUpToDate()":"442bde04","lzReceive((uint32,bytes32,uint64),bytes32,bytes,address,bytes)":"13137d65","nextNonce(uint32,bytes32)":"7d25a05e","oAppVersion()":"17442b70","owner()":"8da5cb5b","peers(uint32)":"bb0b6a53","proxiableUUID()":"52d1902d","quoteBroadcast(uint32[],bytes)":"8e3a428e","registerToken((uint64,uint32,address,address))":"327a75d2","renounceOwnership()":"715018a6","setDelegate(address)":"ca5eb5e1","setPeer(uint32,bytes32)":"3400288b","tokenInfos(uint256)":"7c13774b","transferOwnership(address)":"f2fde38b","transferRoots(uint256)":"8f84778d","transferTreeIndices(uint256)":"534dc25e","updateToken((uint64,uint32,address,address))":"62b32f58","upgradeTo(address)":"3659cfe6","upgradeToAndCall(address,bytes)":"4f1ef286","zeroHash(uint256)":"41b4631e"},"id":79}