{"abi":[{"type":"constructor","inputs":[],"stateMutability":"nonpayable"},{"type":"function","name":"depositNative","inputs":[],"outputs":[],"stateMutability":"payable"},{"type":"function","name":"depositToken","inputs":[{"name":"amount","type":"uint256","internalType":"uint256"}],"outputs":[],"stateMutability":"nonpayable"},{"type":"function","name":"initialize","inputs":[{"name":"zerc20Token_","type":"address","internalType":"address"},{"name":"tokenAddress_","type":"address","internalType":"address"},{"name":"initialOwner","type":"address","internalType":"address"}],"outputs":[],"stateMutability":"nonpayable"},{"type":"function","name":"owner","inputs":[],"outputs":[{"name":"","type":"address","internalType":"address"}],"stateMutability":"view"},{"type":"function","name":"proxiableUUID","inputs":[],"outputs":[{"name":"","type":"bytes32","internalType":"bytes32"}],"stateMutability":"view"},{"type":"function","name":"renounceOwnership","inputs":[],"outputs":[],"stateMutability":"nonpayable"},{"type":"function","name":"tokenAddress","inputs":[],"outputs":[{"name":"","type":"address","internalType":"address"}],"stateMutability":"view"},{"type":"function","name":"transferOwnership","inputs":[{"name":"newOwner","type":"address","internalType":"address"}],"outputs":[],"stateMutability":"nonpayable"},{"type":"function","name":"upgradeTo","inputs":[{"name":"newImplementation","type":"address","internalType":"address"}],"outputs":[],"stateMutability":"nonpayable"},{"type":"function","name":"upgradeToAndCall","inputs":[{"name":"newImplementation","type":"address","internalType":"address"},{"name":"data","type":"bytes","internalType":"bytes"}],"outputs":[],"stateMutability":"payable"},{"type":"function","name":"withdrawNative","inputs":[{"name":"amount","type":"uint256","internalType":"uint256"}],"outputs":[],"stateMutability":"nonpayable"},{"type":"function","name":"withdrawToken","inputs":[{"name":"amount","type":"uint256","internalType":"uint256"}],"outputs":[],"stateMutability":"nonpayable"},{"type":"function","name":"zerc20Token","inputs":[],"outputs":[{"name":"","type":"address","internalType":"address"}],"stateMutability":"view"},{"type":"event","name":"AdminChanged","inputs":[{"name":"previousAdmin","type":"address","indexed":false,"internalType":"address"},{"name":"newAdmin","type":"address","indexed":false,"internalType":"address"}],"anonymous":false},{"type":"event","name":"BeaconUpgraded","inputs":[{"name":"beacon","type":"address","indexed":true,"internalType":"address"}],"anonymous":false},{"type":"event","name":"Initialized","inputs":[{"name":"version","type":"uint8","indexed":false,"internalType":"uint8"}],"anonymous":false},{"type":"event","name":"NativeDeposited","inputs":[{"name":"account","type":"address","indexed":true,"internalType":"address"},{"name":"amount","type":"uint256","indexed":false,"internalType":"uint256"}],"anonymous":false},{"type":"event","name":"NativeWithdrawn","inputs":[{"name":"account","type":"address","indexed":true,"internalType":"address"},{"name":"amount","type":"uint256","indexed":false,"internalType":"uint256"}],"anonymous":false},{"type":"event","name":"OwnershipTransferred","inputs":[{"name":"previousOwner","type":"address","indexed":true,"internalType":"address"},{"name":"newOwner","type":"address","indexed":true,"internalType":"address"}],"anonymous":false},{"type":"event","name":"TokenDeposited","inputs":[{"name":"account","type":"address","indexed":true,"internalType":"address"},{"name":"amount","type":"uint256","indexed":false,"internalType":"uint256"}],"anonymous":false},{"type":"event","name":"TokenWithdrawn","inputs":[{"name":"account","type":"address","indexed":true,"internalType":"address"},{"name":"amount","type":"uint256","indexed":false,"internalType":"uint256"}],"anonymous":false},{"type":"event","name":"Upgraded","inputs":[{"name":"implementation","type":"address","indexed":true,"internalType":"address"}],"anonymous":false},{"type":"error","name":"InsufficientNativeLiquidity","inputs":[{"name":"available","type":"uint256","internalType":"uint256"},{"name":"requested","type":"uint256","internalType":"uint256"}]},{"type":"error","name":"InsufficientTokenLiquidity","inputs":[{"name":"available","type":"uint256","internalType":"uint256"},{"name":"requested","type":"uint256","internalType":"uint256"}]},{"type":"error","name":"NativeDisabled","inputs":[]},{"type":"error","name":"NativeTransferFailed","inputs":[]},{"type":"error","name":"TokenDisabled","inputs":[]},{"type":"error","name":"ZeroAmount","inputs":[]},{"type":"error","name":"ZeroOwner","inputs":[]},{"type":"error","name":"ZeroZerc20Token","inputs":[]}],"bytecode":{"object":"0x60a060405230608052348015610013575f5ffd5b5061001c610021565b6100dd565b5f54610100900460ff161561008c5760405162461bcd60e51b815260206004820152602760248201527f496e697469616c697a61626c653a20636f6e747261637420697320696e697469604482015266616c697a696e6760c81b606482015260840160405180910390fd5b5f5460ff908116146100db575f805460ff191660ff9081179091556040519081527f7f26b83ff96e1f2b6a682f133852f6798a09c465da95921460cefb38474024989060200160405180910390a15b565b6080516117286101115f395f818161024e01528181610297015281816103340152818161037401526105a401526117285ff3fe6080604052600436106100bf575f3560e01c806384276d811161007c578063c0c53b8b11610057578063c0c53b8b146101df578063c9c97cd4146101fe578063db6b52461461021d578063f2fde38b14610225575f5ffd5b806384276d81146101705780638da5cb5b1461018f5780639d76ea58146101c0575f5ffd5b80633659cfe6146100c35780634f1ef286146100e457806350baa622146100f757806352d1902d146101165780636215be771461013d578063715018a61461015c575b5f5ffd5b3480156100ce575f5ffd5b506100e26100dd3660046113ff565b610244565b005b6100e26100f236600461142c565b61032a565b348015610102575f5ffd5b506100e26101113660046114f0565b6103f9565b348015610121575f5ffd5b5061012a610598565b6040519081526020015b60405180910390f35b348015610148575f5ffd5b506100e26101573660046114f0565b610649565b348015610167575f5ffd5b506100e2610750565b34801561017b575f5ffd5b506100e261018a3660046114f0565b610763565b34801561019a575f5ffd5b506033546001600160a01b03165b6040516001600160a01b039091168152602001610134565b3480156101cb575f5ffd5b5060fc546101a8906001600160a01b031681565b3480156101ea575f5ffd5b506100e26101f9366004611507565b6108e7565b348015610209575f5ffd5b5060fb546101a8906001600160a01b031681565b6100e2610a8c565b348015610230575f5ffd5b506100e261023f3660046113ff565b610b7f565b6001600160a01b037f00000000000000000000000000000000000000000000000000000000000000001630036102955760405162461bcd60e51b815260040161028c90611547565b60405180910390fd5b7f00000000000000000000000000000000000000000000000000000000000000006001600160a01b03166102dd5f5160206116ac5f395f51905f52546001600160a01b031690565b6001600160a01b0316146103035760405162461bcd60e51b815260040161028c90611593565b61030c81610bf5565b604080515f8082526020820190925261032791839190610bfd565b50565b6001600160a01b037f00000000000000000000000000000000000000000000000000000000000000001630036103725760405162461bcd60e51b815260040161028c90611547565b7f00000000000000000000000000000000000000000000000000000000000000006001600160a01b03166103ba5f5160206116ac5f395f51905f52546001600160a01b031690565b6001600160a01b0316146103e05760405162461bcd60e51b815260040161028c90611593565b6103e982610bf5565b6103f582826001610bfd565b5050565b610401610d6c565b60fc546001600160a01b031661042a57604051631931ea8560e01b815260040160405180910390fd5b805f0361044a57604051631f2a200560e01b815260040160405180910390fd5b60fc546040516370a0823160e01b81523060048201525f916001600160a01b0316906370a0823190602401602060405180830381865afa158015610490573d5f5f3e3d5ffd5b505050506040513d601f19601f820116820180604052508101906104b491906115df565b9050818110156104e157604051639a4305c760e01b8152600481018290526024810183905260440161028c565b60fb54604051632770a7eb60e21b8152336004820152602481018490526001600160a01b0390911690639dc29fac906044015f604051808303815f87803b15801561052a575f5ffd5b505af115801561053c573d5f5f3e3d5ffd5b505060fc5461055892506001600160a01b031690503384610dc5565b60405182815233907fa2bd9fcfcdba69f52bcd9a520846ad4bd685b187483f53efc42d035b2ddebff09060200160405180910390a250610327600160c955565b5f306001600160a01b037f000000000000000000000000000000000000000000000000000000000000000016146106375760405162461bcd60e51b815260206004820152603860248201527f555550535570677261646561626c653a206d757374206e6f742062652063616c60448201527f6c6564207468726f7567682064656c656761746563616c6c0000000000000000606482015260840161028c565b505f5160206116ac5f395f51905f5290565b610651610d6c565b60fc546001600160a01b031661067a57604051631931ea8560e01b815260040160405180910390fd5b805f0361069a57604051631f2a200560e01b815260040160405180910390fd5b60fc546106b2906001600160a01b0316333084610e2f565b60fb546040516340c10f1960e01b8152336004820152602481018390526001600160a01b03909116906340c10f19906044015f604051808303815f87803b1580156106fb575f5ffd5b505af115801561070d573d5f5f3e3d5ffd5b50506040518381523392507fbc7c8a4d8049a3f99a02f2a20640c206a2e4d3f2fa54fd20da9f01fda3620cda915060200160405180910390a2610327600160c955565b610758610e67565b6107615f610ec1565b565b61076b610d6c565b60fc546001600160a01b0316156107955760405163523693b760e11b815260040160405180910390fd5b805f036107b557604051631f2a200560e01b815260040160405180910390fd5b47818110156107e1576040516332843e9560e11b8152600481018290526024810183905260440161028c565b60fb54604051632770a7eb60e21b8152336004820152602481018490526001600160a01b0390911690639dc29fac906044015f604051808303815f87803b15801561082a575f5ffd5b505af115801561083c573d5f5f3e3d5ffd5b50506040515f925033915084908381818185875af1925050503d805f811461087f576040519150601f19603f3d011682016040523d82523d5f602084013e610884565b606091505b50509050806108a657604051633d2cec6f60e21b815260040160405180910390fd5b60405183815233907fc303ca808382409472acbbf899c316cf439f409f6584aae22df86dfa3c9ed5049060200160405180910390a25050610327600160c955565b5f54610100900460ff161580801561090557505f54600160ff909116105b8061091e5750303b15801561091e57505f5460ff166001145b6109815760405162461bcd60e51b815260206004820152602e60248201527f496e697469616c697a61626c653a20636f6e747261637420697320616c72656160448201526d191e481a5b9a5d1a585b1a5e995960921b606482015260840161028c565b5f805460ff1916600117905580156109a2575f805461ff0019166101001790555b6001600160a01b0384166109c9576040516359ff06f960e01b815260040160405180910390fd5b6001600160a01b0382166109f057604051639905827b60e01b815260040160405180910390fd5b6109f8610f12565b610a00610f40565b610a08610f66565b60fb80546001600160a01b038087166001600160a01b03199283161790925560fc805492861692909116919091179055610a4182610ec1565b8015610a86575f805461ff0019169055604051600181527f7f26b83ff96e1f2b6a682f133852f6798a09c465da95921460cefb38474024989060200160405180910390a15b50505050565b610a94610d6c565b60fc546001600160a01b031615610abe5760405163523693b760e11b815260040160405180910390fd5b345f819003610ae057604051631f2a200560e01b815260040160405180910390fd5b60fb546040516340c10f1960e01b8152336004820152602481018390526001600160a01b03909116906340c10f19906044015f604051808303815f87803b158015610b29575f5ffd5b505af1158015610b3b573d5f5f3e3d5ffd5b50506040518381523392507fb5d7700fb0cf415158b8db7cc7c39f0eab16a825c92e221404b4c8bb099b4bbb915060200160405180910390a250610761600160c955565b610b87610e67565b6001600160a01b038116610bec5760405162461bcd60e51b815260206004820152602660248201527f4f776e61626c653a206e6577206f776e657220697320746865207a65726f206160448201526564647265737360d01b606482015260840161028c565b61032781610ec1565b610327610e67565b7f4910fdfa16fed3260ed0e7147f7cc6da11a60208b5b9406d12a635614ffd91435460ff1615610c3557610c3083610f94565b505050565b826001600160a01b03166352d1902d6040518163ffffffff1660e01b8152600401602060405180830381865afa925050508015610c8f575060408051601f3d908101601f19168201909252610c8c918101906115df565b60015b610cf25760405162461bcd60e51b815260206004820152602e60248201527f45524331393637557067726164653a206e657720696d706c656d656e7461746960448201526d6f6e206973206e6f74205555505360901b606482015260840161028c565b5f5160206116ac5f395f51905f528114610d605760405162461bcd60e51b815260206004820152602960248201527f45524331393637557067726164653a20756e737570706f727465642070726f786044820152681a58589b195555525160ba1b606482015260840161028c565b50610c3083838361102f565b600260c95403610dbe5760405162461bcd60e51b815260206004820152601f60248201527f5265656e7472616e637947756172643a207265656e7472616e742063616c6c00604482015260640161028c565b600260c955565b6040516001600160a01b038316602482015260448101829052610c3090849063a9059cbb60e01b906064015b60408051601f198184030181529190526020810180516001600160e01b03166001600160e01b031990931692909217909152611053565b600160c955565b6040516001600160a01b0380851660248301528316604482015260648101829052610a869085906323b872dd60e01b90608401610df1565b6033546001600160a01b031633146107615760405162461bcd60e51b815260206004820181905260248201527f4f776e61626c653a2063616c6c6572206973206e6f7420746865206f776e6572604482015260640161028c565b603380546001600160a01b038381166001600160a01b0319831681179093556040519116919082907f8be0079c531659141344cd1fd0a4f28419497f9722a3daafe3b4186f6b6457e0905f90a35050565b5f54610100900460ff16610f385760405162461bcd60e51b815260040161028c906115f6565b610761611126565b5f54610100900460ff166107615760405162461bcd60e51b815260040161028c906115f6565b5f54610100900460ff16610f8c5760405162461bcd60e51b815260040161028c906115f6565b610761611155565b6001600160a01b0381163b6110015760405162461bcd60e51b815260206004820152602d60248201527f455243313936373a206e657720696d706c656d656e746174696f6e206973206e60448201526c1bdd08184818dbdb9d1c9858dd609a1b606482015260840161028c565b5f5160206116ac5f395f51905f5280546001600160a01b0319166001600160a01b0392909216919091179055565b6110388361117b565b5f825111806110445750805b15610c3057610a8683836111ba565b5f6110a7826040518060400160405280602081526020017f5361666545524332303a206c6f772d6c6576656c2063616c6c206661696c6564815250856001600160a01b03166111e69092919063ffffffff16565b905080515f14806110c75750808060200190518101906110c79190611641565b610c305760405162461bcd60e51b815260206004820152602a60248201527f5361666545524332303a204552433230206f7065726174696f6e20646964206e6044820152691bdd081cdd58d8d9595960b21b606482015260840161028c565b5f54610100900460ff1661114c5760405162461bcd60e51b815260040161028c906115f6565b61076133610ec1565b5f54610100900460ff16610e285760405162461bcd60e51b815260040161028c906115f6565b61118481610f94565b6040516001600160a01b038216907fbc7cd75a20ee27fd9adebab32041f755214dbc6bffa90cc0225b39da2e5c2d3b905f90a250565b60606111df83836040518060600160405280602781526020016116cc602791396111fc565b9392505050565b60606111f484845f85611270565b949350505050565b60605f5f856001600160a01b0316856040516112189190611660565b5f60405180830381855af49150503d805f8114611250576040519150601f19603f3d011682016040523d82523d5f602084013e611255565b606091505b509150915061126686838387611347565b9695505050505050565b6060824710156112d15760405162461bcd60e51b815260206004820152602660248201527f416464726573733a20696e73756666696369656e742062616c616e636520666f6044820152651c8818d85b1b60d21b606482015260840161028c565b5f5f866001600160a01b031685876040516112ec9190611660565b5f6040518083038185875af1925050503d805f8114611326576040519150601f19603f3d011682016040523d82523d5f602084013e61132b565b606091505b509150915061133c87838387611347565b979650505050505050565b606083156113b55782515f036113ae576001600160a01b0385163b6113ae5760405162461bcd60e51b815260206004820152601d60248201527f416464726573733a2063616c6c20746f206e6f6e2d636f6e7472616374000000604482015260640161028c565b50816111f4565b6111f483838151156113ca5781518083602001fd5b8060405162461bcd60e51b815260040161028c9190611676565b80356001600160a01b03811681146113fa575f5ffd5b919050565b5f6020828403121561140f575f5ffd5b6111df826113e4565b634e487b7160e01b5f52604160045260245ffd5b5f5f6040838503121561143d575f5ffd5b611446836113e4565b9150602083013567ffffffffffffffff811115611461575f5ffd5b8301601f81018513611471575f5ffd5b803567ffffffffffffffff81111561148b5761148b611418565b604051601f8201601f19908116603f0116810167ffffffffffffffff811182821017156114ba576114ba611418565b6040528181528282016020018710156114d1575f5ffd5b816020840160208301375f602083830101528093505050509250929050565b5f60208284031215611500575f5ffd5b5035919050565b5f5f5f60608486031215611519575f5ffd5b611522846113e4565b9250611530602085016113e4565b915061153e604085016113e4565b90509250925092565b6020808252602c908201527f46756e6374696f6e206d7573742062652063616c6c6564207468726f7567682060408201526b19195b1959d85d1958d85b1b60a21b606082015260800190565b6020808252602c908201527f46756e6374696f6e206d7573742062652063616c6c6564207468726f7567682060408201526b6163746976652070726f787960a01b606082015260800190565b5f602082840312156115ef575f5ffd5b5051919050565b6020808252602b908201527f496e697469616c697a61626c653a20636f6e7472616374206973206e6f74206960408201526a6e697469616c697a696e6760a81b606082015260800190565b5f60208284031215611651575f5ffd5b815180151581146111df575f5ffd5b5f82518060208501845e5f920191825250919050565b602081525f82518060208401528060208501604085015e5f604082850101526040601f19601f8301168401019150509291505056fe360894a13ba1a3210667c828492db98dca3e2076cc3735a920a3ca505d382bbc416464726573733a206c6f772d6c6576656c2064656c65676174652063616c6c206661696c6564a2646970667358221220c729c17bbd41341ad834f5d5eb21f5dbb75ad3c414c329c3fb1188d16e3d69eb64736f6c634300081e0033","linkReferences":{}},"methodIdentifiers":{"depositNative()":"db6b5246","depositToken(uint256)":"6215be77","initialize(address,address,address)":"c0c53b8b","owner()":"8da5cb5b","proxiableUUID()":"52d1902d","renounceOwnership()":"715018a6","tokenAddress()":"9d76ea58","transferOwnership(address)":"f2fde38b","upgradeTo(address)":"3659cfe6","upgradeToAndCall(address,bytes)":"4f1ef286","withdrawNative(uint256)":"84276d81","withdrawToken(uint256)":"50baa622","zerc20Token()":"c9c97cd4"},"id":39}