{"abi":[{"type":"constructor","inputs":[],"stateMutability":"nonpayable"},{"type":"function","name":"allowance","inputs":[{"name":"owner","type":"address","internalType":"address"},{"name":"spender","type":"address","internalType":"address"}],"outputs":[{"name":"","type":"uint256","internalType":"uint256"}],"stateMutability":"view"},{"type":"function","name":"approve","inputs":[{"name":"spender","type":"address","internalType":"address"},{"name":"amount","type":"uint256","internalType":"uint256"}],"outputs":[{"name":"","type":"bool","internalType":"bool"}],"stateMutability":"nonpayable"},{"type":"function","name":"balanceOf","inputs":[{"name":"account","type":"address","internalType":"address"}],"outputs":[{"name":"","type":"uint256","internalType":"uint256"}],"stateMutability":"view"},{"type":"function","name":"burn","inputs":[{"name":"from","type":"address","internalType":"address"},{"name":"value","type":"uint256","internalType":"uint256"}],"outputs":[],"stateMutability":"nonpayable"},{"type":"function","name":"decimals","inputs":[],"outputs":[{"name":"","type":"uint8","internalType":"uint8"}],"stateMutability":"view"},{"type":"function","name":"decreaseAllowance","inputs":[{"name":"spender","type":"address","internalType":"address"},{"name":"subtractedValue","type":"uint256","internalType":"uint256"}],"outputs":[{"name":"","type":"bool","internalType":"bool"}],"stateMutability":"nonpayable"},{"type":"function","name":"hashChain","inputs":[],"outputs":[{"name":"","type":"uint256","internalType":"uint256"}],"stateMutability":"view"},{"type":"function","name":"increaseAllowance","inputs":[{"name":"spender","type":"address","internalType":"address"},{"name":"addedValue","type":"uint256","internalType":"uint256"}],"outputs":[{"name":"","type":"bool","internalType":"bool"}],"stateMutability":"nonpayable"},{"type":"function","name":"index","inputs":[],"outputs":[{"name":"","type":"uint256","internalType":"uint256"}],"stateMutability":"view"},{"type":"function","name":"initialize","inputs":[{"name":"name_","type":"string","internalType":"string"},{"name":"symbol_","type":"string","internalType":"string"},{"name":"initialOwner","type":"address","internalType":"address"}],"outputs":[],"stateMutability":"nonpayable"},{"type":"function","name":"mint","inputs":[{"name":"to","type":"address","internalType":"address"},{"name":"value","type":"uint256","internalType":"uint256"}],"outputs":[],"stateMutability":"nonpayable"},{"type":"function","name":"minter","inputs":[],"outputs":[{"name":"","type":"address","internalType":"address"}],"stateMutability":"view"},{"type":"function","name":"name","inputs":[],"outputs":[{"name":"","type":"string","internalType":"string"}],"stateMutability":"view"},{"type":"function","name":"owner","inputs":[],"outputs":[{"name":"","type":"address","internalType":"address"}],"stateMutability":"view"},{"type":"function","name":"proxiableUUID","inputs":[],"outputs":[{"name":"","type":"bytes32","internalType":"bytes32"}],"stateMutability":"view"},{"type":"function","name":"renounceOwnership","inputs":[],"outputs":[],"stateMutability":"nonpayable"},{"type":"function","name":"setMinter","inputs":[{"name":"newMinter","type":"address","internalType":"address"}],"outputs":[],"stateMutability":"nonpayable"},{"type":"function","name":"setVerifier","inputs":[{"name":"newVerifier","type":"address","internalType":"address"}],"outputs":[],"stateMutability":"nonpayable"},{"type":"function","name":"symbol","inputs":[],"outputs":[{"name":"","type":"string","internalType":"string"}],"stateMutability":"view"},{"type":"function","name":"teleport","inputs":[{"name":"to","type":"address","internalType":"address"},{"name":"value","type":"uint256","internalType":"uint256"}],"outputs":[],"stateMutability":"nonpayable"},{"type":"function","name":"totalSupply","inputs":[],"outputs":[{"name":"","type":"uint256","internalType":"uint256"}],"stateMutability":"view"},{"type":"function","name":"transfer","inputs":[{"name":"to","type":"address","internalType":"address"},{"name":"amount","type":"uint256","internalType":"uint256"}],"outputs":[{"name":"","type":"bool","internalType":"bool"}],"stateMutability":"nonpayable"},{"type":"function","name":"transferFrom","inputs":[{"name":"from","type":"address","internalType":"address"},{"name":"to","type":"address","internalType":"address"},{"name":"amount","type":"uint256","internalType":"uint256"}],"outputs":[{"name":"","type":"bool","internalType":"bool"}],"stateMutability":"nonpayable"},{"type":"function","name":"transferOwnership","inputs":[{"name":"newOwner","type":"address","internalType":"address"}],"outputs":[],"stateMutability":"nonpayable"},{"type":"function","name":"upgradeTo","inputs":[{"name":"newImplementation","type":"address","internalType":"address"}],"outputs":[],"stateMutability":"nonpayable"},{"type":"function","name":"upgradeToAndCall","inputs":[{"name":"newImplementation","type":"address","internalType":"address"},{"name":"data","type":"bytes","internalType":"bytes"}],"outputs":[],"stateMutability":"payable"},{"type":"function","name":"verifier","inputs":[],"outputs":[{"name":"","type":"address","internalType":"address"}],"stateMutability":"view"},{"type":"event","name":"AdminChanged","inputs":[{"name":"previousAdmin","type":"address","indexed":false,"internalType":"address"},{"name":"newAdmin","type":"address","indexed":false,"internalType":"address"}],"anonymous":false},{"type":"event","name":"Approval","inputs":[{"name":"owner","type":"address","indexed":true,"internalType":"address"},{"name":"spender","type":"address","indexed":true,"internalType":"address"},{"name":"value","type":"uint256","indexed":false,"internalType":"uint256"}],"anonymous":false},{"type":"event","name":"BeaconUpgraded","inputs":[{"name":"beacon","type":"address","indexed":true,"internalType":"address"}],"anonymous":false},{"type":"event","name":"IndexedTransfer","inputs":[{"name":"index","type":"uint256","indexed":true,"internalType":"uint256"},{"name":"from","type":"address","indexed":false,"internalType":"address"},{"name":"to","type":"address","indexed":false,"internalType":"address"},{"name":"value","type":"uint256","indexed":false,"internalType":"uint256"}],"anonymous":false},{"type":"event","name":"Initialized","inputs":[{"name":"version","type":"uint8","indexed":false,"internalType":"uint8"}],"anonymous":false},{"type":"event","name":"MinterUpdated","inputs":[{"name":"newMinter","type":"address","indexed":true,"internalType":"address"}],"anonymous":false},{"type":"event","name":"OwnershipTransferred","inputs":[{"name":"previousOwner","type":"address","indexed":true,"internalType":"address"},{"name":"newOwner","type":"address","indexed":true,"internalType":"address"}],"anonymous":false},{"type":"event","name":"Teleport","inputs":[{"name":"to","type":"address","indexed":true,"internalType":"address"},{"name":"value","type":"uint256","indexed":false,"internalType":"uint256"}],"anonymous":false},{"type":"event","name":"Transfer","inputs":[{"name":"from","type":"address","indexed":true,"internalType":"address"},{"name":"to","type":"address","indexed":true,"internalType":"address"},{"name":"value","type":"uint256","indexed":false,"internalType":"uint256"}],"anonymous":false},{"type":"event","name":"Upgraded","inputs":[{"name":"implementation","type":"address","indexed":true,"internalType":"address"}],"anonymous":false},{"type":"event","name":"VerifierUpdated","inputs":[{"name":"newVerifier","type":"address","indexed":true,"internalType":"address"}],"anonymous":false},{"type":"error","name":"OnlyMinter","inputs":[]},{"type":"error","name":"OnlyVerifier","inputs":[]},{"type":"error","name":"ZeroAddress","inputs":[]}],"bytecode":{"object":"0x60a060405230608052348015610013575f5ffd5b5061001c610021565b6100dd565b5f54610100900460ff161561008c5760405162461bcd60e51b815260206004820152602760248201527f496e697469616c697a61626c653a20636f6e747261637420697320696e697469604482015266616c697a696e6760c81b606482015260840160405180910390fd5b5f5460ff908116146100db575f805460ff191660ff9081179091556040519081527f7f26b83ff96e1f2b6a682f133852f6798a09c465da95921460cefb38474024989060200160405180910390a15b565b608051611dd06101115f395f8181610787015281816107c7015281816108be015281816108fe015261098b0152611dd05ff3fe608060405260043610610195575f3560e01c80634f1ef286116100e75780639dc29fac11610087578063c841eccb11610062578063c841eccb1461046e578063dd62ed3e14610483578063f2fde38b146104a2578063fca3b5aa146104c1575f5ffd5b80639dc29fac14610411578063a457c2d714610430578063a9059cbb1461044f575f5ffd5b806370a08231116100c257806370a0823114610398578063715018a6146103cc5780638da5cb5b146103e057806395d89b41146103fd575f5ffd5b80634f1ef2861461035257806352d1902d146103655780635437988d14610379575f5ffd5b806323b872dd11610152578063313ce5671161012d578063313ce567146102da5780633659cfe6146102f5578063395093511461031457806340c10f1914610333575f5ffd5b806323b872dd146102875780632986c0e5146102a65780632b7ac3f3146102bb575f5ffd5b806304ddf0a51461019957806306fdde03146101ba57806307546172146101e4578063077f224a1461021b578063095ea7b31461023a57806318160ddd14610269575b5f5ffd5b3480156101a4575f5ffd5b506101b86101b336600461186a565b6104e0565b005b3480156101c5575f5ffd5b506101ce61055c565b6040516101db9190611892565b60405180910390f35b3480156101ef575f5ffd5b5060fe54610203906001600160a01b031681565b6040516001600160a01b0390911681526020016101db565b348015610226575f5ffd5b506101b8610235366004611970565b6105ec565b348015610245575f5ffd5b5061025961025436600461186a565b610741565b60405190151581526020016101db565b348015610274575f5ffd5b506035545b6040519081526020016101db565b348015610292575f5ffd5b506102596102a13660046119e4565b61075a565b3480156102b1575f5ffd5b5061027960fc5481565b3480156102c6575f5ffd5b5060fd54610203906001600160a01b031681565b3480156102e5575f5ffd5b50604051601281526020016101db565b348015610300575f5ffd5b506101b861030f366004611a1e565b61077d565b34801561031f575f5ffd5b5061025961032e36600461186a565b61085a565b34801561033e575f5ffd5b506101b861034d36600461186a565b61087b565b6101b8610360366004611a37565b6108b4565b348015610370575f5ffd5b5061027961097f565b348015610384575f5ffd5b506101b8610393366004611a1e565b610a30565b3480156103a3575f5ffd5b506102796103b2366004611a1e565b6001600160a01b03165f9081526033602052604090205490565b3480156103d7575f5ffd5b506101b8610aa8565b3480156103eb575f5ffd5b506065546001600160a01b0316610203565b348015610408575f5ffd5b506101ce610abb565b34801561041c575f5ffd5b506101b861042b36600461186a565b610aca565b34801561043b575f5ffd5b5061025961044a36600461186a565b610aff565b34801561045a575f5ffd5b5061025961046936600461186a565b610b79565b348015610479575f5ffd5b5061027960fb5481565b34801561048e575f5ffd5b5061027961049d366004611a95565b610b86565b3480156104ad575f5ffd5b506101b86104bc366004611a1e565b610bb0565b3480156104cc575f5ffd5b506101b86104db366004611a1e565b610c26565b60fd546001600160a01b0316331461050b57604051633d120d8160e11b815260040160405180910390fd5b6105158282610c9e565b816001600160a01b03167fb7d7623245cb52e55db0c4265c68f0507e52aadd4f195cfdafaf1ea5d107e72d8260405161055091815260200190565b60405180910390a25050565b60606036805461056b90611ac6565b80601f016020809104026020016040519081016040528092919081815260200182805461059790611ac6565b80156105e25780601f106105b9576101008083540402835291602001916105e2565b820191905f5260205f20905b8154815290600101906020018083116105c557829003601f168201915b5050505050905090565b5f54610100900460ff161580801561060a57505f54600160ff909116105b806106235750303b15801561062357505f5460ff166001145b61068b5760405162461bcd60e51b815260206004820152602e60248201527f496e697469616c697a61626c653a20636f6e747261637420697320616c72656160448201526d191e481a5b9a5d1a585b1a5e995960921b60648201526084015b60405180910390fd5b5f805460ff1916600117905580156106ac575f805461ff0019166101001790555b6001600160a01b0382166106d35760405163d92e233d60e01b815260040160405180910390fd5b6106dd8484610d64565b6106e5610d94565b6106ed610dc2565b6106f682610de8565b801561073b575f805461ff0019169055604051600181527f7f26b83ff96e1f2b6a682f133852f6798a09c465da95921460cefb38474024989060200160405180910390a15b50505050565b5f3361074e818585610e39565b60019150505b92915050565b5f33610767858285610f5c565b610772858585610fce565b506001949350505050565b6001600160a01b037f00000000000000000000000000000000000000000000000000000000000000001630036107c55760405162461bcd60e51b815260040161068290611afe565b7f00000000000000000000000000000000000000000000000000000000000000006001600160a01b031661080d5f516020611d545f395f51905f52546001600160a01b031690565b6001600160a01b0316146108335760405162461bcd60e51b815260040161068290611b4a565b61083c8161117d565b604080515f8082526020820190925261085791839190611185565b50565b5f3361074e81858561086c8383610b86565b6108769190611baa565b610e39565b60fe546001600160a01b031633146108a657604051639cdc2ed560e01b815260040160405180910390fd5b6108b08282610c9e565b5050565b6001600160a01b037f00000000000000000000000000000000000000000000000000000000000000001630036108fc5760405162461bcd60e51b815260040161068290611afe565b7f00000000000000000000000000000000000000000000000000000000000000006001600160a01b03166109445f516020611d545f395f51905f52546001600160a01b031690565b6001600160a01b03161461096a5760405162461bcd60e51b815260040161068290611b4a565b6109738261117d565b6108b082826001611185565b5f306001600160a01b037f00000000000000000000000000000000000000000000000000000000000000001614610a1e5760405162461bcd60e51b815260206004820152603860248201527f555550535570677261646561626c653a206d757374206e6f742062652063616c60448201527f6c6564207468726f7567682064656c656761746563616c6c00000000000000006064820152608401610682565b505f516020611d545f395f51905f5290565b610a386112f4565b6001600160a01b038116610a5f5760405163d92e233d60e01b815260040160405180910390fd5b60fd80546001600160a01b0319166001600160a01b0383169081179091556040517fd24015cc99cc1700cafca3042840a1d8ac1e3964fd2e0e37ea29c654056ee327905f90a250565b610ab06112f4565b610ab95f610de8565b565b60606037805461056b90611ac6565b60fe546001600160a01b03163314610af557604051639cdc2ed560e01b815260040160405180910390fd5b6108b0828261134e565b5f3381610b0c8286610b86565b905083811015610b6c5760405162461bcd60e51b815260206004820152602560248201527f45524332303a2064656372656173656420616c6c6f77616e63652062656c6f77604482015264207a65726f60d81b6064820152608401610682565b6107728286868403610e39565b5f3361074e818585610fce565b6001600160a01b039182165f90815260346020908152604080832093909416825291909152205490565b610bb86112f4565b6001600160a01b038116610c1d5760405162461bcd60e51b815260206004820152602660248201527f4f776e61626c653a206e6577206f776e657220697320746865207a65726f206160448201526564647265737360d01b6064820152608401610682565b61085781610de8565b610c2e6112f4565b6001600160a01b038116610c555760405163d92e233d60e01b815260040160405180910390fd5b60fe80546001600160a01b0319166001600160a01b0383169081179091556040517fad0f299ec81a386c98df0ac27dae11dd020ed1b56963c53a7292e7a3a314539a905f90a250565b6001600160a01b038216610cf45760405162461bcd60e51b815260206004820152601f60248201527f45524332303a206d696e7420746f20746865207a65726f2061646472657373006044820152606401610682565b8060355f828254610d059190611baa565b90915550506001600160a01b0382165f818152603360209081526040808320805486019055518481527fddf252ad1be2c89b69c2b068fc378daa952ba7f163c4a11628f55a4df523b3ef910160405180910390a36108b05f8383611482565b5f54610100900460ff16610d8a5760405162461bcd60e51b815260040161068290611bbd565b6108b082826114f5565b5f54610100900460ff16610dba5760405162461bcd60e51b815260040161068290611bbd565b610ab9611534565b5f54610100900460ff16610ab95760405162461bcd60e51b815260040161068290611bbd565b606580546001600160a01b038381166001600160a01b0319831681179093556040519116919082907f8be0079c531659141344cd1fd0a4f28419497f9722a3daafe3b4186f6b6457e0905f90a35050565b6001600160a01b038316610e9b5760405162461bcd60e51b8152602060048201526024808201527f45524332303a20617070726f76652066726f6d20746865207a65726f206164646044820152637265737360e01b6064820152608401610682565b6001600160a01b038216610efc5760405162461bcd60e51b815260206004820152602260248201527f45524332303a20617070726f766520746f20746865207a65726f206164647265604482015261737360f01b6064820152608401610682565b6001600160a01b038381165f8181526034602090815260408083209487168084529482529182902085905590518481527f8c5be1e5ebec7d5bd14f71427d1e84f3dd0314c0f7b2291e5b200ac8c7c3b925910160405180910390a3505050565b5f610f678484610b86565b90505f19811461073b5781811015610fc15760405162461bcd60e51b815260206004820152601d60248201527f45524332303a20696e73756666696369656e7420616c6c6f77616e63650000006044820152606401610682565b61073b8484848403610e39565b6001600160a01b0383166110325760405162461bcd60e51b815260206004820152602560248201527f45524332303a207472616e736665722066726f6d20746865207a65726f206164604482015264647265737360d81b6064820152608401610682565b6001600160a01b0382166110945760405162461bcd60e51b815260206004820152602360248201527f45524332303a207472616e7366657220746f20746865207a65726f206164647260448201526265737360e81b6064820152608401610682565b6001600160a01b0383165f908152603360205260409020548181101561110b5760405162461bcd60e51b815260206004820152602660248201527f45524332303a207472616e7366657220616d6f756e7420657863656564732062604482015265616c616e636560d01b6064820152608401610682565b6001600160a01b038085165f8181526033602052604080822086860390559286168082529083902080548601905591517fddf252ad1be2c89b69c2b068fc378daa952ba7f163c4a11628f55a4df523b3ef9061116a9086815260200190565b60405180910390a361073b848484611482565b6108576112f4565b7f4910fdfa16fed3260ed0e7147f7cc6da11a60208b5b9406d12a635614ffd91435460ff16156111bd576111b883611563565b505050565b826001600160a01b03166352d1902d6040518163ffffffff1660e01b8152600401602060405180830381865afa925050508015611217575060408051601f3d908101601f1916820190925261121491810190611c08565b60015b61127a5760405162461bcd60e51b815260206004820152602e60248201527f45524331393637557067726164653a206e657720696d706c656d656e7461746960448201526d6f6e206973206e6f74205555505360901b6064820152608401610682565b5f516020611d545f395f51905f5281146112e85760405162461bcd60e51b815260206004820152602960248201527f45524331393637557067726164653a20756e737570706f727465642070726f786044820152681a58589b195555525160ba1b6064820152608401610682565b506111b88383836115fe565b6065546001600160a01b03163314610ab95760405162461bcd60e51b815260206004820181905260248201527f4f776e61626c653a2063616c6c6572206973206e6f7420746865206f776e65726044820152606401610682565b6001600160a01b0382166113ae5760405162461bcd60e51b815260206004820152602160248201527f45524332303a206275726e2066726f6d20746865207a65726f206164647265736044820152607360f81b6064820152608401610682565b6001600160a01b0382165f90815260336020526040902054818110156114215760405162461bcd60e51b815260206004820152602260248201527f45524332303a206275726e20616d6f756e7420657863656564732062616c616e604482015261636560f01b6064820152608401610682565b6001600160a01b0383165f8181526033602090815260408083208686039055603580548790039055518581529192917fddf252ad1be2c89b69c2b068fc378daa952ba7f163c4a11628f55a4df523b3ef910160405180910390a36111b8835f845b61148f60fb548383611622565b60fb5560fc8054905f6114a183611c1f565b90915550604080516001600160a01b038087168252851660208201529081018390527fb9285eeffc25fae3689fd1d4d3245dbc73f87f3bc8cb50c1de55574221805d0d9060600160405180910390a2505050565b5f54610100900460ff1661151b5760405162461bcd60e51b815260040161068290611bbd565b60366115278382611c82565b5060376111b88282611c82565b5f54610100900460ff1661155a5760405162461bcd60e51b815260040161068290611bbd565b610ab933610de8565b6001600160a01b0381163b6115d05760405162461bcd60e51b815260206004820152602d60248201527f455243313936373a206e657720696d706c656d656e746174696f6e206973206e60448201526c1bdd08184818dbdb9d1c9858dd609a1b6064820152608401610682565b5f516020611d545f395f51905f5280546001600160a01b0319166001600160a01b0392909216919091179055565b611607836116c6565b5f825111806116135750805b156111b85761073b8383611705565b5f600284848460405160200161165d9392919092835260609190911b6bffffffffffffffffffffffff19166020830152603482015260540190565b60408051601f198184030181529082905261167791611d3d565b602060405180830381855afa158015611692573d5f5f3e3d5ffd5b5050506040513d601f19601f820116820180604052508101906116b59190611c08565b6001600160f81b0316949350505050565b6116cf81611563565b6040516001600160a01b038216907fbc7cd75a20ee27fd9adebab32041f755214dbc6bffa90cc0225b39da2e5c2d3b905f90a250565b606061172a8383604051806060016040528060278152602001611d7460279139611731565b9392505050565b60605f5f856001600160a01b03168560405161174d9190611d3d565b5f60405180830381855af49150503d805f8114611785576040519150601f19603f3d011682016040523d82523d5f602084013e61178a565b606091505b509150915061179b868383876117a5565b9695505050505050565b606083156118135782515f0361180c576001600160a01b0385163b61180c5760405162461bcd60e51b815260206004820152601d60248201527f416464726573733a2063616c6c20746f206e6f6e2d636f6e74726163740000006044820152606401610682565b508161181d565b61181d8383611825565b949350505050565b8151156118355781518083602001fd5b8060405162461bcd60e51b81526004016106829190611892565b80356001600160a01b0381168114611865575f5ffd5b919050565b5f5f6040838503121561187b575f5ffd5b6118848361184f565b946020939093013593505050565b602081525f82518060208401528060208501604085015e5f604082850101526040601f19601f83011684010191505092915050565b634e487b7160e01b5f52604160045260245ffd5b5f5f67ffffffffffffffff8411156118f5576118f56118c7565b50604051601f19601f85018116603f0116810181811067ffffffffffffffff82111715611924576119246118c7565b60405283815290508082840185101561193b575f5ffd5b838360208301375f60208583010152509392505050565b5f82601f830112611961575f5ffd5b61172a838335602085016118db565b5f5f5f60608486031215611982575f5ffd5b833567ffffffffffffffff811115611998575f5ffd5b6119a486828701611952565b935050602084013567ffffffffffffffff8111156119c0575f5ffd5b6119cc86828701611952565b9250506119db6040850161184f565b90509250925092565b5f5f5f606084860312156119f6575f5ffd5b6119ff8461184f565b9250611a0d6020850161184f565b929592945050506040919091013590565b5f60208284031215611a2e575f5ffd5b61172a8261184f565b5f5f60408385031215611a48575f5ffd5b611a518361184f565b9150602083013567ffffffffffffffff811115611a6c575f5ffd5b8301601f81018513611a7c575f5ffd5b611a8b858235602084016118db565b9150509250929050565b5f5f60408385031215611aa6575f5ffd5b611aaf8361184f565b9150611abd6020840161184f565b90509250929050565b600181811c90821680611ada57607f821691505b602082108103611af857634e487b7160e01b5f52602260045260245ffd5b50919050565b6020808252602c908201527f46756e6374696f6e206d7573742062652063616c6c6564207468726f7567682060408201526b19195b1959d85d1958d85b1b60a21b606082015260800190565b6020808252602c908201527f46756e6374696f6e206d7573742062652063616c6c6564207468726f7567682060408201526b6163746976652070726f787960a01b606082015260800190565b634e487b7160e01b5f52601160045260245ffd5b8082018082111561075457610754611b96565b6020808252602b908201527f496e697469616c697a61626c653a20636f6e7472616374206973206e6f74206960408201526a6e697469616c697a696e6760a81b606082015260800190565b5f60208284031215611c18575f5ffd5b5051919050565b5f60018201611c3057611c30611b96565b5060010190565b601f8211156111b857805f5260205f20601f840160051c81016020851015611c5c5750805b601f840160051c820191505b81811015611c7b575f8155600101611c68565b5050505050565b815167ffffffffffffffff811115611c9c57611c9c6118c7565b611cb081611caa8454611ac6565b84611c37565b6020601f821160018114611ce2575f8315611ccb5750848201515b5f19600385901b1c1916600184901b178455611c7b565b5f84815260208120601f198516915b82811015611d115787850151825560209485019460019092019101611cf1565b5084821015611d2e57868401515f19600387901b60f8161c191681555b50505050600190811b01905550565b5f82518060208501845e5f92019182525091905056fe360894a13ba1a3210667c828492db98dca3e2076cc3735a920a3ca505d382bbc416464726573733a206c6f772d6c6576656c2064656c65676174652063616c6c206661696c6564a264697066735822122005736de76748ee413b8b7c84f71869d2bc9963b804b337fd484e23556690f8c964736f6c634300081e0033","linkReferences":{}},"methodIdentifiers":{"allowance(address,address)":"dd62ed3e","approve(address,uint256)":"095ea7b3","balanceOf(address)":"70a08231","burn(address,uint256)":"9dc29fac","decimals()":"313ce567","decreaseAllowance(address,uint256)":"a457c2d7","hashChain()":"c841eccb","increaseAllowance(address,uint256)":"39509351","index()":"2986c0e5","initialize(string,string,address)":"077f224a","mint(address,uint256)":"40c10f19","minter()":"07546172","name()":"06fdde03","owner()":"8da5cb5b","proxiableUUID()":"52d1902d","renounceOwnership()":"715018a6","setMinter(address)":"fca3b5aa","setVerifier(address)":"5437988d","symbol()":"95d89b41","teleport(address,uint256)":"04ddf0a5","totalSupply()":"18160ddd","transfer(address,uint256)":"a9059cbb","transferFrom(address,address,uint256)":"23b872dd","transferOwnership(address)":"f2fde38b","upgradeTo(address)":"3659cfe6","upgradeToAndCall(address,bytes)":"4f1ef286","verifier()":"2b7ac3f3"},"id":97}