{"abi":[{"type":"constructor","inputs":[],"stateMutability":"nonpayable"},{"type":"function","name":"HUB_EID","inputs":[],"outputs":[{"name":"","type":"uint32","internalType":"uint32"}],"stateMutability":"view"},{"type":"function","name":"TOKEN","inputs":[],"outputs":[{"name":"","type":"address","internalType":"address"}],"stateMutability":"view"},{"type":"function","name":"allowInitializePath","inputs":[{"name":"origin","type":"tuple","internalType":"struct Origin","components":[{"name":"srcEid","type":"uint32","internalType":"uint32"},{"name":"sender","type":"bytes32","internalType":"bytes32"},{"name":"nonce","type":"uint64","internalType":"uint64"}]}],"outputs":[{"name":"","type":"bool","internalType":"bool"}],"stateMutability":"view"},{"type":"function","name":"deactivateEmergency","inputs":[],"outputs":[],"stateMutability":"nonpayable"},{"type":"function","name":"endpoint","inputs":[],"outputs":[{"name":"","type":"address","internalType":"contract ILayerZeroEndpointV2"}],"stateMutability":"view"},{"type":"function","name":"globalTransferRoots","inputs":[{"name":"","type":"uint64","internalType":"uint64"}],"outputs":[{"name":"","type":"uint256","internalType":"uint256"}],"stateMutability":"view"},{"type":"function","name":"initialize","inputs":[{"name":"token","type":"address","internalType":"address"},{"name":"hubEid","type":"uint32","internalType":"uint32"},{"name":"endpoint","type":"address","internalType":"address"},{"name":"delegate","type":"address","internalType":"address"},{"name":"rootDecider_","type":"address","internalType":"address"},{"name":"withdrawGlobalDecider_","type":"address","internalType":"address"},{"name":"withdrawLocalDecider_","type":"address","internalType":"address"},{"name":"singleWithdrawGlobalVerifier_","type":"address","internalType":"address"},{"name":"singleWithdrawLocalVerifier_","type":"address","internalType":"address"}],"outputs":[],"stateMutability":"nonpayable"},{"type":"function","name":"isComposeMsgSender","inputs":[{"name":"","type":"tuple","internalType":"struct Origin","components":[{"name":"srcEid","type":"uint32","internalType":"uint32"},{"name":"sender","type":"bytes32","internalType":"bytes32"},{"name":"nonce","type":"uint64","internalType":"uint64"}]},{"name":"","type":"bytes","internalType":"bytes"},{"name":"_sender","type":"address","internalType":"address"}],"outputs":[{"name":"","type":"bool","internalType":"bool"}],"stateMutability":"view"},{"type":"function","name":"isUpToDate","inputs":[],"outputs":[{"name":"","type":"bool","internalType":"bool"}],"stateMutability":"view"},{"type":"function","name":"latestAggSeq","inputs":[],"outputs":[{"name":"","type":"uint64","internalType":"uint64"}],"stateMutability":"view"},{"type":"function","name":"latestProvedIndex","inputs":[],"outputs":[{"name":"","type":"uint64","internalType":"uint64"}],"stateMutability":"view"},{"type":"function","name":"latestRelayedIndex","inputs":[],"outputs":[{"name":"","type":"uint64","internalType":"uint64"}],"stateMutability":"view"},{"type":"function","name":"latestReservedIndex","inputs":[],"outputs":[{"name":"","type":"uint64","internalType":"uint64"}],"stateMutability":"view"},{"type":"function","name":"lzReceive","inputs":[{"name":"_origin","type":"tuple","internalType":"struct Origin","components":[{"name":"srcEid","type":"uint32","internalType":"uint32"},{"name":"sender","type":"bytes32","internalType":"bytes32"},{"name":"nonce","type":"uint64","internalType":"uint64"}]},{"name":"_guid","type":"bytes32","internalType":"bytes32"},{"name":"_message","type":"bytes","internalType":"bytes"},{"name":"_executor","type":"address","internalType":"address"},{"name":"_extraData","type":"bytes","internalType":"bytes"}],"outputs":[],"stateMutability":"payable"},{"type":"function","name":"nextNonce","inputs":[{"name":"","type":"uint32","internalType":"uint32"},{"name":"","type":"bytes32","internalType":"bytes32"}],"outputs":[{"name":"nonce","type":"uint64","internalType":"uint64"}],"stateMutability":"view"},{"type":"function","name":"oAppVersion","inputs":[],"outputs":[{"name":"senderVersion","type":"uint64","internalType":"uint64"},{"name":"receiverVersion","type":"uint64","internalType":"uint64"}],"stateMutability":"view"},{"type":"function","name":"owner","inputs":[],"outputs":[{"name":"","type":"address","internalType":"address"}],"stateMutability":"view"},{"type":"function","name":"paused","inputs":[],"outputs":[{"name":"","type":"bool","internalType":"bool"}],"stateMutability":"view"},{"type":"function","name":"peers","inputs":[{"name":"eid","type":"uint32","internalType":"uint32"}],"outputs":[{"name":"peer","type":"bytes32","internalType":"bytes32"}],"stateMutability":"view"},{"type":"function","name":"proveTransferRoot","inputs":[{"name":"proof","type":"bytes","internalType":"bytes"}],"outputs":[],"stateMutability":"nonpayable"},{"type":"function","name":"provedTransferRoots","inputs":[{"name":"","type":"uint64","internalType":"uint64"}],"outputs":[{"name":"","type":"uint256","internalType":"uint256"}],"stateMutability":"view"},{"type":"function","name":"proxiableUUID","inputs":[],"outputs":[{"name":"","type":"bytes32","internalType":"bytes32"}],"stateMutability":"view"},{"type":"function","name":"quoteRelay","inputs":[{"name":"options","type":"bytes","internalType":"bytes"}],"outputs":[{"name":"fee","type":"tuple","internalType":"struct MessagingFee","components":[{"name":"nativeFee","type":"uint256","internalType":"uint256"},{"name":"lzTokenFee","type":"uint256","internalType":"uint256"}]}],"stateMutability":"view"},{"type":"function","name":"relayTransferRoot","inputs":[{"name":"options","type":"bytes","internalType":"bytes"}],"outputs":[{"name":"receipt","type":"tuple","internalType":"struct MessagingReceipt","components":[{"name":"guid","type":"bytes32","internalType":"bytes32"},{"name":"nonce","type":"uint64","internalType":"uint64"},{"name":"fee","type":"tuple","internalType":"struct MessagingFee","components":[{"name":"nativeFee","type":"uint256","internalType":"uint256"},{"name":"lzTokenFee","type":"uint256","internalType":"uint256"}]}]}],"stateMutability":"payable"},{"type":"function","name":"renounceOwnership","inputs":[],"outputs":[],"stateMutability":"nonpayable"},{"type":"function","name":"reserveHashChain","inputs":[],"outputs":[{"name":"index","type":"uint64","internalType":"uint64"},{"name":"hashChain","type":"uint256","internalType":"uint256"}],"stateMutability":"nonpayable"},{"type":"function","name":"reservedHashChains","inputs":[{"name":"","type":"uint64","internalType":"uint64"}],"outputs":[{"name":"","type":"uint256","internalType":"uint256"}],"stateMutability":"view"},{"type":"function","name":"rootDecider","inputs":[],"outputs":[{"name":"","type":"address","internalType":"address"}],"stateMutability":"view"},{"type":"function","name":"setDelegate","inputs":[{"name":"_delegate","type":"address","internalType":"address"}],"outputs":[],"stateMutability":"nonpayable"},{"type":"function","name":"setPeer","inputs":[{"name":"_eid","type":"uint32","internalType":"uint32"},{"name":"_peer","type":"bytes32","internalType":"bytes32"}],"outputs":[],"stateMutability":"nonpayable"},{"type":"function","name":"setVerifiers","inputs":[{"name":"newRootDecider","type":"address","internalType":"address"},{"name":"newWithdrawGlobalDecider","type":"address","internalType":"address"},{"name":"newWithdrawLocalDecider","type":"address","internalType":"address"},{"name":"newSingleWithdrawGlobalVerifier","type":"address","internalType":"address"},{"name":"newSingleWithdrawLocalVerifier","type":"address","internalType":"address"}],"outputs":[],"stateMutability":"nonpayable"},{"type":"function","name":"singleTeleport","inputs":[{"name":"isGlobal","type":"bool","internalType":"bool"},{"name":"rootHint","type":"uint64","internalType":"uint64"},{"name":"gr","type":"tuple","internalType":"struct GeneralRecipientLib.GeneralRecipient","components":[{"name":"chainId","type":"uint64","internalType":"uint64"},{"name":"recipient","type":"bytes32","internalType":"bytes32"},{"name":"tweak","type":"bytes32","internalType":"bytes32"}]},{"name":"proof","type":"bytes","internalType":"bytes"}],"outputs":[],"stateMutability":"nonpayable"},{"type":"function","name":"singleWithdrawGlobalVerifier","inputs":[],"outputs":[{"name":"","type":"address","internalType":"address"}],"stateMutability":"view"},{"type":"function","name":"singleWithdrawLocalVerifier","inputs":[],"outputs":[{"name":"","type":"address","internalType":"address"}],"stateMutability":"view"},{"type":"function","name":"teleport","inputs":[{"name":"isGlobal","type":"bool","internalType":"bool"},{"name":"rootHint","type":"uint64","internalType":"uint64"},{"name":"gr","type":"tuple","internalType":"struct GeneralRecipientLib.GeneralRecipient","components":[{"name":"chainId","type":"uint64","internalType":"uint64"},{"name":"recipient","type":"bytes32","internalType":"bytes32"},{"name":"tweak","type":"bytes32","internalType":"bytes32"}]},{"name":"proof","type":"bytes","internalType":"bytes"}],"outputs":[],"stateMutability":"nonpayable"},{"type":"function","name":"totalTeleported","inputs":[{"name":"","type":"uint256","internalType":"uint256"}],"outputs":[{"name":"","type":"uint256","internalType":"uint256"}],"stateMutability":"view"},{"type":"function","name":"transferOwnership","inputs":[{"name":"newOwner","type":"address","internalType":"address"}],"outputs":[],"stateMutability":"nonpayable"},{"type":"function","name":"upgradeTo","inputs":[{"name":"newImplementation","type":"address","internalType":"address"}],"outputs":[],"stateMutability":"nonpayable"},{"type":"function","name":"upgradeToAndCall","inputs":[{"name":"newImplementation","type":"address","internalType":"address"},{"name":"data","type":"bytes","internalType":"bytes"}],"outputs":[],"stateMutability":"payable"},{"type":"function","name":"withdrawGlobalDecider","inputs":[],"outputs":[{"name":"","type":"address","internalType":"address"}],"stateMutability":"view"},{"type":"function","name":"withdrawLocalDecider","inputs":[],"outputs":[{"name":"","type":"address","internalType":"address"}],"stateMutability":"view"},{"type":"event","name":"AdminChanged","inputs":[{"name":"previousAdmin","type":"address","indexed":false,"internalType":"address"},{"name":"newAdmin","type":"address","indexed":false,"internalType":"address"}],"anonymous":false},{"type":"event","name":"BeaconUpgraded","inputs":[{"name":"beacon","type":"address","indexed":true,"internalType":"address"}],"anonymous":false},{"type":"event","name":"DeactivateEmergency","inputs":[],"anonymous":false},{"type":"event","name":"EmergencyTriggered","inputs":[{"name":"index","type":"uint64","indexed":true,"internalType":"uint64"},{"name":"root1","type":"uint256","indexed":false,"internalType":"uint256"},{"name":"root2","type":"uint256","indexed":false,"internalType":"uint256"}],"anonymous":false},{"type":"event","name":"GlobalRootSaved","inputs":[{"name":"aggSeq","type":"uint64","indexed":true,"internalType":"uint64"},{"name":"root","type":"uint256","indexed":false,"internalType":"uint256"}],"anonymous":false},{"type":"event","name":"HashChainReserved","inputs":[{"name":"index","type":"uint64","indexed":true,"internalType":"uint64"},{"name":"hashChain","type":"uint256","indexed":false,"internalType":"uint256"}],"anonymous":false},{"type":"event","name":"Initialized","inputs":[{"name":"version","type":"uint8","indexed":false,"internalType":"uint8"}],"anonymous":false},{"type":"event","name":"OwnershipTransferred","inputs":[{"name":"previousOwner","type":"address","indexed":true,"internalType":"address"},{"name":"newOwner","type":"address","indexed":true,"internalType":"address"}],"anonymous":false},{"type":"event","name":"Paused","inputs":[{"name":"account","type":"address","indexed":false,"internalType":"address"}],"anonymous":false},{"type":"event","name":"PeerSet","inputs":[{"name":"eid","type":"uint32","indexed":false,"internalType":"uint32"},{"name":"peer","type":"bytes32","indexed":false,"internalType":"bytes32"}],"anonymous":false},{"type":"event","name":"Teleport","inputs":[{"name":"to","type":"address","indexed":true,"internalType":"address"},{"name":"value","type":"uint256","indexed":false,"internalType":"uint256"}],"anonymous":false},{"type":"event","name":"TransferRootProved","inputs":[{"name":"index","type":"uint64","indexed":true,"internalType":"uint64"},{"name":"root","type":"uint256","indexed":false,"internalType":"uint256"}],"anonymous":false},{"type":"event","name":"TransferRootRelayed","inputs":[{"name":"index","type":"uint64","indexed":true,"internalType":"uint64"},{"name":"root","type":"uint256","indexed":false,"internalType":"uint256"},{"name":"lzMsgId","type":"bytes","indexed":false,"internalType":"bytes"}],"anonymous":false},{"type":"event","name":"Unpaused","inputs":[{"name":"account","type":"address","indexed":false,"internalType":"address"}],"anonymous":false},{"type":"event","name":"Upgraded","inputs":[{"name":"implementation","type":"address","indexed":true,"internalType":"address"}],"anonymous":false},{"type":"event","name":"VerifiersSet","inputs":[{"name":"rootDecider","type":"address","indexed":false,"internalType":"address"},{"name":"withdrawGlobalDecider","type":"address","indexed":false,"internalType":"address"},{"name":"withdrawLocalDecider","type":"address","indexed":false,"internalType":"address"},{"name":"singleWithdrawGlobalVerifier","type":"address","indexed":false,"internalType":"address"},{"name":"singleWithdrawLocalVerifier","type":"address","indexed":false,"internalType":"address"}],"anonymous":false},{"type":"error","name":"ExpectedRootZero","inputs":[{"name":"rootHint","type":"uint64","internalType":"uint64"}]},{"type":"error","name":"FinalRecipientMismatch","inputs":[{"name":"expected","type":"uint256","internalType":"uint256"},{"name":"actual","type":"uint256","internalType":"uint256"}]},{"type":"error","name":"FinalTransferRootMismatch","inputs":[{"name":"expected","type":"uint256","internalType":"uint256"},{"name":"actual","type":"uint256","internalType":"uint256"}]},{"type":"error","name":"InsufficientMsgValue","inputs":[{"name":"required","type":"uint256","internalType":"uint256"},{"name":"provided","type":"uint256","internalType":"uint256"}]},{"type":"error","name":"InvalidDelegate","inputs":[]},{"type":"error","name":"InvalidEndpointCall","inputs":[]},{"type":"error","name":"InvalidHubSource","inputs":[{"name":"srcEid","type":"uint32","internalType":"uint32"}]},{"type":"error","name":"InvalidInitialLastLeafIndex","inputs":[{"name":"value","type":"uint256","internalType":"uint256"}]},{"type":"error","name":"InvalidInitialTotalValue","inputs":[{"name":"value","type":"uint256","internalType":"uint256"}]},{"type":"error","name":"InvalidProof","inputs":[]},{"type":"error","name":"InvalidRecipientChainId","inputs":[{"name":"provided","type":"uint64","internalType":"uint64"},{"name":"expected","type":"uint64","internalType":"uint64"}]},{"type":"error","name":"LzTokenUnavailable","inputs":[]},{"type":"error","name":"NewHashChainMismatch","inputs":[{"name":"index","type":"uint64","internalType":"uint64"},{"name":"expected","type":"uint256","internalType":"uint256"},{"name":"actual","type":"uint256","internalType":"uint256"}]},{"type":"error","name":"NoPeer","inputs":[{"name":"eid","type":"uint32","internalType":"uint32"}]},{"type":"error","name":"NoProvedRoot","inputs":[]},{"type":"error","name":"NotEnoughNative","inputs":[{"name":"msgValue","type":"uint256","internalType":"uint256"}]},{"type":"error","name":"NothingToWithdraw","inputs":[{"name":"currentTotal","type":"uint256","internalType":"uint256"},{"name":"totalValue","type":"uint256","internalType":"uint256"}]},{"type":"error","name":"OldRootMismatch","inputs":[{"name":"index","type":"uint64","internalType":"uint64"},{"name":"expected","type":"uint256","internalType":"uint256"},{"name":"actual","type":"uint256","internalType":"uint256"}]},{"type":"error","name":"OldRootZero","inputs":[{"name":"index","type":"uint64","internalType":"uint64"}]},{"type":"error","name":"OnlyEndpoint","inputs":[{"name":"addr","type":"address","internalType":"address"}]},{"type":"error","name":"OnlyPeer","inputs":[{"name":"eid","type":"uint32","internalType":"uint32"},{"name":"sender","type":"bytes32","internalType":"bytes32"}]},{"type":"error","name":"RecipientMismatch","inputs":[{"name":"expected","type":"uint256","internalType":"uint256"},{"name":"actual","type":"uint256","internalType":"uint256"}]},{"type":"error","name":"ReserveHashChainNotFound","inputs":[{"name":"index","type":"uint64","internalType":"uint64"}]},{"type":"error","name":"TransferRootMismatch","inputs":[{"name":"expected","type":"uint256","internalType":"uint256"},{"name":"actual","type":"uint256","internalType":"uint256"}]},{"type":"error","name":"ZeroAddress","inputs":[]},{"type":"error","name":"ZeroToken","inputs":[]}],"bytecode":{"object":"0x60a060405230608052348015610013575f5ffd5b5061001c610021565b6100dd565b5f54610100900460ff161561008c5760405162461bcd60e51b815260206004820152602760248201527f496e697469616c697a61626c653a20636f6e747261637420697320696e697469604482015266616c697a696e6760c81b606482015260840160405180910390fd5b5f5460ff908116146100db575f805460ff191660ff9081179091556040519081527f7f26b83ff96e1f2b6a682f133852f6798a09c465da95921460cefb38474024989060200160405180910390a15b565b6080516137fd6101115f395f8181610c1a01528181610c5a01528181610cf701528181610d370152610dc401526137fd5ff3fe60806040526004361061023e575f3560e01c806386106a2911610134578063ca5eb5e1116100b3578063e305768911610078578063e30576891461072a578063e9debe0514610749578063f2fde38b14610770578063fa6869481461078f578063ff53cc04146107a3578063ff7bd03d146107ca575f5ffd5b8063ca5eb5e11461066e578063d19265281461068d578063d22f96df146106bf578063d4d12244146106df578063e2910dd3146106fe575f5ffd5b8063a97f176f116100f9578063a97f176f146105b1578063bb0b6a53146105d8578063be6a2c1514610603578063c172e9e314610622578063ca4663801461064e575f5ffd5b806386106a29146105155780638da5cb5b146105355780638fe64dd4146105525780639854265f146105725780639f487dbd14610591575f5ffd5b806352d1902d116101c0578063715018a611610185578063715018a61461046b578063755d89f21461047f5780637d25a05e1461049f57806382413eac146104d857806382bfefc8146104f7575f5ffd5b806352d1902d146103c15780635c975abb146103d55780635e280f11146103ed57806363373bdc1461040c57806369cc1d271461043f575f5ffd5b80633400288b116102065780633400288b146103025780633659cfe614610321578063442bde04146103405780634a80034f146103765780634f1ef286146103ae575f5ffd5b806311d297231461024257806313137d651461026357806317442b70146102765780631bb298771461029c57806326efeb2b146102d6575b5f5ffd5b34801561024d575f5ffd5b5061026161025c366004612c01565b6107e9565b005b610261610271366004612c69565b610acb565b348015610281575f5ffd5b50604080516001815260026020820152015b60405180910390f35b3480156102a7575f5ffd5b506102c86102b6366004612d17565b6101c96020525f908152604090205481565b604051908152602001610293565b3480156102e1575f5ffd5b506102f56102f0366004612c01565b610b68565b6040516102939190612d32565b34801561030d575f5ffd5b5061026161031c366004612d61565b610bfe565b34801561032c575f5ffd5b5061026161033b366004612d89565b610c10565b34801561034b575f5ffd5b506101c754600160801b81046001600160401b039081169116145b6040519015158152602001610293565b348015610381575f5ffd5b506101c554610396906001600160a01b031681565b6040516001600160a01b039091168152602001610293565b6102616103bc366004612e10565b610ced565b3480156103cc575f5ffd5b506102c8610db8565b3480156103e0575f5ffd5b5061012b5460ff16610366565b3480156103f8575f5ffd5b50606554610396906001600160a01b031681565b348015610417575f5ffd5b50610420610e69565b604080516001600160401b039093168352602083019190915201610293565b34801561044a575f5ffd5b506102c8610459366004612eb5565b6101cb6020525f908152604090205481565b348015610476575f5ffd5b50610261610fc3565b34801561048a575f5ffd5b506101c654610396906001600160a01b031681565b3480156104aa575f5ffd5b506104c06104b9366004612d61565b5f92915050565b6040516001600160401b039091168152602001610293565b3480156104e3575f5ffd5b506103666104f2366004612ecc565b610fd6565b348015610502575f5ffd5b506101c1546001600160a01b0316610396565b610528610523366004612c01565b610feb565b6040516102939190612f2e565b348015610540575f5ffd5b506033546001600160a01b0316610396565b34801561055d575f5ffd5b506101c254610396906001600160a01b031681565b34801561057d575f5ffd5b5061026161058c366004612f7c565b6111fc565b34801561059c575f5ffd5b506101c7546104c0906001600160401b031681565b3480156105bc575f5ffd5b506101c7546104c090600160401b90046001600160401b031681565b3480156105e3575f5ffd5b506102c86105f2366004612ff1565b60666020525f908152604090205481565b34801561060e575f5ffd5b5061026161061d36600461300a565b6113b1565b34801561062d575f5ffd5b506102c861063c366004612d17565b6101ca6020525f908152604090205481565b348015610659575f5ffd5b506101c454610396906001600160a01b031681565b348015610679575f5ffd5b50610261610688366004612d89565b6114e0565b348015610698575f5ffd5b506101c154600160a01b900463ffffffff1660405163ffffffff9091168152602001610293565b3480156106ca575f5ffd5b506101c354610396906001600160a01b031681565b3480156106ea575f5ffd5b506102616106f9366004612f7c565b61156c565b348015610709575f5ffd5b506102c8610718366004612d17565b6101c86020525f908152604090205481565b348015610735575f5ffd5b50610261610744366004613077565b61167a565b348015610754575f5ffd5b506101c6546104c090600160a01b90046001600160401b031681565b34801561077b575f5ffd5b5061026161078a366004612d89565b61183e565b34801561079a575f5ffd5b506102616118b4565b3480156107ae575f5ffd5b506101c7546104c090600160801b90046001600160401b031681565b3480156107d5575f5ffd5b506103666107e436600461312b565b6118ee565b6107f1611922565b5f6107fe82840184613145565b60208101516060820151608083015160a084015160c08501516101c25460405163bd70b10d60e01b8152969750949593949293919290916001600160a01b039091169063bd70b10d906108559089906004016131ac565b602060405180830381865afa158015610870573d5f5f3e3d5ffd5b505050506040513d601f19601f8201168201806040525081019061089491906131dd565b6108b1576040516309bde33960e01b815260040160405180910390fd5b84846108e157604051633e4231c560e21b81526001600160401b0390911660048201526024015b60405180910390fd5b506001600160401b0385165f9081526101c960205260409020548581868082146109375760405163330cc0b760e21b81526001600160401b039093166004840152602483019190915260448201526064016108d8565b5050506001600160401b0384165f9081526101c86020526040902054848161097e5760405163028fb25160e11b81526001600160401b0390911660048201526024016108d8565b508481858181146109bb57604051637588dabf60e11b81526001600160401b039093166004840152602483019190915260448201526064016108d8565b5050506001600160401b0385165f9081526101c9602052604090205480158015906109e65750838114155b15610a45576109f3611969565b60408051828152602081018690526001600160401b038816917f02c176cf3735d2128d6be5286548b0a34500e9c9826cac57be03a380cb3da3a091015b60405180910390a25050505050505050505050565b6001600160401b038087165f8181526101c9602052604090208690556101c7549091161015610a8c576101c7805467ffffffffffffffff19166001600160401b0388161790555b856001600160401b03167fdea8bdf257f42e5441e81fcac8c8b04c3eb571a8896ea38adf6a8d9989594e1385604051610a3091815260200190565b5050565b6065546001600160a01b03163314610af8576040516391ac5e4f60e01b81523360048201526024016108d8565b60208701803590610b1290610b0d908a612ff1565b6119c4565b14610b5057610b246020880188612ff1565b60405163309afaf360e21b815263ffffffff9091166004820152602088013560248201526044016108d8565b610b5f878787878787876119ff565b50505050505050565b604080518082019091525f8082526020820152604080515f602082018190529181018290526060016040516020818303038152906040529050610bf46101c160149054906101000a900463ffffffff168286868080601f0160208091040260200160405190810160405280939291908181526020018383808284375f9201829052509250611b37915050565b9150505b92915050565b610c06611bfc565b610ac78282611c56565b6001600160a01b037f0000000000000000000000000000000000000000000000000000000000000000163003610c585760405162461bcd60e51b81526004016108d8906131f8565b7f00000000000000000000000000000000000000000000000000000000000000006001600160a01b0316610ca05f5160206137815f395f51905f52546001600160a01b031690565b6001600160a01b031614610cc65760405162461bcd60e51b81526004016108d890613244565b610ccf81611caa565b604080515f80825260208201909252610cea91839190611cb2565b50565b6001600160a01b037f0000000000000000000000000000000000000000000000000000000000000000163003610d355760405162461bcd60e51b81526004016108d8906131f8565b7f00000000000000000000000000000000000000000000000000000000000000006001600160a01b0316610d7d5f5160206137815f395f51905f52546001600160a01b031690565b6001600160a01b031614610da35760405162461bcd60e51b81526004016108d890613244565b610dac82611caa565b610ac782826001611cb2565b5f306001600160a01b037f00000000000000000000000000000000000000000000000000000000000000001614610e575760405162461bcd60e51b815260206004820152603860248201527f555550535570677261646561626c653a206d757374206e6f742062652063616c60448201527f6c6564207468726f7567682064656c656761746563616c6c000000000000000060648201526084016108d8565b505f5160206137815f395f51905f5290565b5f5f5f6101c15f9054906101000a90046001600160a01b031690505f816001600160a01b0316632986c0e56040518163ffffffff1660e01b8152600401602060405180830381865afa158015610ec1573d5f5f3e3d5ffd5b505050506040513d601f19601f82011682018060405250810190610ee59190613290565b90505f826001600160a01b031663c841eccb6040518163ffffffff1660e01b8152600401602060405180830381865afa158015610f24573d5f5f3e3d5ffd5b505050506040513d601f19601f82011682018060405250810190610f489190613290565b6001600160401b0383165f8181526101c860209081526040918290208490556101c6805467ffffffffffffffff60a01b1916600160a01b8502179055905183815292935090917f31003eef6c7b1b23395ce30d66bb400da7d389a879a5d1e174103a072a4da15f910160405180910390a29094909350915050565b610fcb611bfc565b610fd45f611e21565b565b6001600160a01b03811630145b949350505050565b610ff3612b7d565b610ffb611922565b6101c7546001600160401b03165f8181526101c9602052604081205490819003611038576040516342a5a05760e01b815260040160405180910390fd5b5f818360405160200161105e9291909182526001600160401b0316602082015260400190565b60405160208183030381529060405290505f6110c36101c160149054906101000a900463ffffffff168389898080601f0160208091040260200160405190810160405280939291908181526020018383808284375f9201829052509250611b37915050565b80519091503410156110f4578051604051631f2dda7760e21b815260048101919091523460248201526044016108d8565b604080518082018252348152602083810151818301526101c1548351601f8b01839004830281018301909452898452919261115d92600160a01b900463ffffffff16918691908c908c90819084018382808284375f92019190915250879250339150611e729050565b9550846001600160401b03167fbecd78746ad6fbb4486ef62d297810172e63cfafbd02a8306c4e639b8d2a99fd85885f01516040516020016111a191815260200190565b60408051601f19818403018152908290526111bc92916132d5565b60405180910390a250506101c780546001600160401b03909416600160801b0267ffffffffffffffff60801b199094169390931790925550909392505050565b611204611922565b5f611211828401846132ed565b6020810151604082015160608301519293509091801561124757604051632e86b29d60e01b81526004016108d891815260200190565b506080830151801561126f57604051631dfca83b60e01b81526004016108d891815260200190565b5060a08301518281811461129f57604051635701303960e11b8152600481019290925260248201526044016108d8565b505060c0830151818181146112d0576040516328cc402560e11b8152600481019290925260248201526044016108d8565b50506101008301515f896112f0576101c4546001600160a01b03166112fe565b6101c3546001600160a01b03165b604051633b7f43e160e11b81529091506001600160a01b038216906376fe87c29061132d90889060040161331c565b602060405180830381865afa158015611348573d5f5f3e3d5ffd5b505050506040513d601f19601f8201168201806040525081019061136c91906131dd565b611389576040516309bde33960e01b815260040160405180910390fd5b6113a58a8a868661139f368e90038e018e613344565b87611f60565b50505050505050505050565b6113b9611bfc565b6001600160a01b03851615806113d657506001600160a01b038416155b806113e857506001600160a01b038316155b806113fa57506001600160a01b038216155b8061140c57506001600160a01b038116155b1561142a5760405163d92e233d60e01b815260040160405180910390fd5b6101c280546001600160a01b038781166001600160a01b031992831681179093556101c3805488831690841681179091556101c4805488841690851681179091556101c5805488851690861681179091556101c6805494881694909516841790945560408051958652602086019290925290840152606083019190915260808201527f86e921feae1a6de3eeb32b9dc98b020ef7315fcc4e001aa492a401a87f08c3329060a00160405180910390a15050505050565b6114e8611bfc565b6001600160a01b03811661150f57604051632d618d8160e21b815260040160405180910390fd5b60655460405163ca5eb5e160e01b81526001600160a01b0383811660048301529091169063ca5eb5e1906024015f604051808303815f87803b158015611553575f5ffd5b505af1158015611565573d5f5f3e3d5ffd5b5050505050565b611574611922565b5f808080611584858701876133da565b8051602082015160408301519599509397509195509350915f8c6115b4576101c6546001600160a01b03166115c2565b6101c5546001600160a01b03165b6040516308a3cff560e11b81529091506001600160a01b038216906311479fea906115f7908b908b908b908b906004016134df565b602060405180830381865afa158015611612573d5f5f3e3d5ffd5b505050506040513d601f19601f8201168201806040525081019061163691906131dd565b611653576040516309bde33960e01b815260040160405180910390fd5b61166b8d8d86868f80360381019061139f9190613344565b50505050505050505050505050565b5f54610100900460ff161580801561169857505f54600160ff909116105b806116b15750303b1580156116b157505f5460ff166001145b6117145760405162461bcd60e51b815260206004820152602e60248201527f496e697469616c697a61626c653a20636f6e747261637420697320616c72656160448201526d191e481a5b9a5d1a585b1a5e995960921b60648201526084016108d8565b5f805460ff191660011790558015611735575f805461ff0019166101001790555b6001600160a01b038a1661175c5760405163ad1991f560e01b815260040160405180910390fd5b6001600160a01b038616158061177957506001600160a01b038516155b8061178b57506001600160a01b038416155b8061179d57506001600160a01b038316155b806117af57506001600160a01b038216155b156117cd5760405163d92e233d60e01b815260040160405180910390fd5b6117d788886121a0565b6117df6121d0565b6117ee8a8a88888888886121f6565b80156113a5575f805461ff0019169055604051600181527f7f26b83ff96e1f2b6a682f133852f6798a09c465da95921460cefb38474024989060200160405180910390a150505050505050505050565b611846611bfc565b6001600160a01b0381166118ab5760405162461bcd60e51b815260206004820152602660248201527f4f776e61626c653a206e6577206f776e657220697320746865207a65726f206160448201526564647265737360d01b60648201526084016108d8565b610cea81611e21565b6118bc611bfc565b6118c4612367565b6040517fdfa56b6600f240ff7756b305d2d62f4944b4ac961293b1dcc8bd8440da55131d905f90a1565b5f6020820180359060669083906119059086612ff1565b63ffffffff16815260208101919091526040015f20541492915050565b61012b5460ff1615610fd45760405162461bcd60e51b815260206004820152601060248201526f14185d5cd8589b194e881c185d5cd95960821b60448201526064016108d8565b611971611922565b61012b805460ff191660011790557f62e78cea01bee320cd4e420270b5ea74000d11b0c9f74754ebdbfc544b05a2586119a73390565b6040516001600160a01b03909116815260200160405180910390a1565b63ffffffff81165f9081526066602052604081205480610bf85760405163f6ff4fb760e01b815263ffffffff841660048201526024016108d8565b6101c154600160a01b900463ffffffff16611a1d6020890189612ff1565b63ffffffff1614611a316020890189612ff1565b90611a5857604051631a59c90d60e01b815263ffffffff90911660048201526024016108d8565b505f80611a6786880188613562565b6001600160401b0381165f9081526101ca602052604081205492945090925003611ae1576001600160401b0381165f8181526101ca602052604090819020849055517fb063c3c8bed53deba8a716145e50ba4052865173924535149e9d4f706f0dcf0390611ad89085815260200190565b60405180910390a25b6101c7546001600160401b03600160401b90910481169082161115611b2c576101c780546fffffffffffffffff00000000000000001916600160401b6001600160401b038416021790555b505050505050505050565b604080518082019091525f80825260208201526065546040805160a0810190915263ffffffff871681526001600160a01b039091169063ddc28c589060208101611b80896119c4565b8152602001878152602001868152602001851515815250306040518363ffffffff1660e01b8152600401611bb5929190613590565b6040805180830381865afa158015611bcf573d5f5f3e3d5ffd5b505050506040513d601f19601f82011682018060405250810190611bf39190613654565b95945050505050565b6033546001600160a01b03163314610fd45760405162461bcd60e51b815260206004820181905260248201527f4f776e61626c653a2063616c6c6572206973206e6f7420746865206f776e657260448201526064016108d8565b63ffffffff82165f81815260666020908152604091829020849055815192835282018390527f238399d427b947898edb290f5ff0f9109849b1c3ba196a42e35f00c50a54b98b910160405180910390a15050565b610cea611bfc565b7f4910fdfa16fed3260ed0e7147f7cc6da11a60208b5b9406d12a635614ffd91435460ff1615611cea57611ce5836123a1565b505050565b826001600160a01b03166352d1902d6040518163ffffffff1660e01b8152600401602060405180830381865afa925050508015611d44575060408051601f3d908101601f19168201909252611d4191810190613290565b60015b611da75760405162461bcd60e51b815260206004820152602e60248201527f45524331393637557067726164653a206e657720696d706c656d656e7461746960448201526d6f6e206973206e6f74205555505360901b60648201526084016108d8565b5f5160206137815f395f51905f528114611e155760405162461bcd60e51b815260206004820152602960248201527f45524331393637557067726164653a20756e737570706f727465642070726f786044820152681a58589b195555525160ba1b60648201526084016108d8565b50611ce583838361243c565b603380546001600160a01b038381166001600160a01b0319831681179093556040519116919082907f8be0079c531659141344cd1fd0a4f28419497f9722a3daafe3b4186f6b6457e0905f90a35050565b611e7a612b7d565b5f611e87845f0151612466565b602085015190915015611ea157611ea1846020015161248d565b6065546040805160a0810190915263ffffffff891681526001600160a01b0390911690632637a45090839060208101611ed98c6119c4565b81526020018a81526020018981526020015f8960200151111515815250866040518463ffffffff1660e01b8152600401611f14929190613590565b60806040518083038185885af1158015611f30573d5f5f3e3d5ffd5b50505050506040513d601f19601f82011682018060405250810190611f55919061366e565b979650505050505050565b5f86611f84576001600160401b0386165f9081526101c96020526040902054611f9e565b6001600160401b0386165f9081526101ca60205260409020545b90508581611fcb5760405163098bd70560e01b81526001600160401b0390911660048201526024016108d8565b508085818114611ff757604051631d7b51f760e11b8152600481019290925260248201526044016108d8565b50505f6120038461253d565b905080858082146120305760405163971ca9a960e01b8152600481019290925260248201526044016108d8565b505083514690816001600160401b03828116908216146120765760405163117fcbdd60e11b81526001600160401b039283166004820152911660248201526044016108d8565b50505f8681526101cb602052604090205480858181116120b257604051630ba6546d60e11b8152600481019290925260248201526044016108d8565b505f90506120c082876136cc565b9050806101cb5f8a81526020019081526020015f205f8282546120e391906136df565b909155505060208701516101c1546040516304ddf0a560e01b81526001600160a01b03808416600483015260248201859052909116906304ddf0a5906044015f604051808303815f87803b158015612139575f5ffd5b505af115801561214b573d5f5f3e3d5ffd5b50505050806001600160a01b03167fb7d7623245cb52e55db0c4265c68f0507e52aadd4f195cfdafaf1ea5d107e72d8360405161218a91815260200190565b60405180910390a2505050505050505050505050565b5f54610100900460ff166121c65760405162461bcd60e51b81526004016108d8906136f2565b610ac782826125ef565b5f54610100900460ff16610fd45760405162461bcd60e51b81526004016108d8906136f2565b5f54610100900460ff1661221c5760405162461bcd60e51b81526004016108d8906136f2565b6122246126ed565b6101c180546001600160a01b038981166001600160c01b031990921691909117600160a01b63ffffffff8a1602179091556101c280546001600160a01b03199081168884169081179092556101c3805482168885169081179091556101c4805483168886169081179091556101c5805484168887169081179091556101c6805490941695871695861790935560408051948552602085019290925290830152606082015260808101919091527f86e921feae1a6de3eeb32b9dc98b020ef7315fcc4e001aa492a401a87f08c3329060a00160405180910390a150505f805250506101c960205250507f1334fa4b552f00ef403361c935c1abcf896851003c40daa93bb0fd0a0bb9a8817f7c10892a280cc3f5bd80e2d9472e6a40f9e6892bb44a92fc3aebc1b98f6f285d55506101c7805467ffffffffffffffff60801b19169055565b61236f61271b565b61012b805460ff191690557f5db9ee0a495bf2e6ff9c91a7834c1ba4fdd244a5e8aa4e537bd38aeae4b073aa336119a7565b6001600160a01b0381163b61240e5760405162461bcd60e51b815260206004820152602d60248201527f455243313936373a206e657720696d706c656d656e746174696f6e206973206e60448201526c1bdd08184818dbdb9d1c9858dd609a1b60648201526084016108d8565b5f5160206137815f395f51905f5280546001600160a01b0319166001600160a01b0392909216919091179055565b61244583612765565b5f825111806124515750805b15611ce55761246083836127a4565b50505050565b5f813414612489576040516304fb820960e51b81523460048201526024016108d8565b5090565b6065546040805163393f876560e21b815290515f926001600160a01b03169163e4fe1d949160048083019260209291908290030181865afa1580156124d4573d5f5f3e3d5ffd5b505050506040513d601f19601f820116820180604052508101906124f8919061373d565b90506001600160a01b038116612521576040516329b99a9560e11b815260040160405180910390fd5b606554610ac7906001600160a01b0383811691339116856127d0565b5f5f6002835f0151846020015185604001516040516020016125819392919060c09390931b6001600160c01b03191683526008830191909152602882015260480190565b60408051601f198184030181529082905261259b91613758565b602060405180830381855afa1580156125b6573d5f5f3e3d5ffd5b5050506040513d601f19601f820116820180604052508101906125d99190613290565b6001600160f81b0316600160f81b179392505050565b5f54610100900460ff166126155760405162461bcd60e51b81526004016108d8906136f2565b6001600160a01b03821661263c576040516307def60560e11b815260040160405180910390fd5b6001600160a01b03811661266357604051632d618d8160e21b815260040160405180910390fd5b61266b61282a565b606580546001600160a01b0319166001600160a01b03841617905561268f81611e21565b60655460405163ca5eb5e160e01b81526001600160a01b0383811660048301529091169063ca5eb5e1906024015f604051808303815f87803b1580156126d3575f5ffd5b505af11580156126e5573d5f5f3e3d5ffd5b505050505050565b5f54610100900460ff166127135760405162461bcd60e51b81526004016108d8906136f2565b610fd4612858565b61012b5460ff16610fd45760405162461bcd60e51b815260206004820152601460248201527314185d5cd8589b194e881b9bdd081c185d5cd95960621b60448201526064016108d8565b61276e816123a1565b6040516001600160a01b038216907fbc7cd75a20ee27fd9adebab32041f755214dbc6bffa90cc0225b39da2e5c2d3b905f90a250565b60606127c983836040518060600160405280602781526020016137a16027913961288b565b9392505050565b604080516001600160a01b0385811660248301528416604482015260648082018490528251808303909101815260849091019091526020810180516001600160e01b03166323b872dd60e01b1790526124609085906128ff565b5f54610100900460ff166128505760405162461bcd60e51b81526004016108d8906136f2565b610fd46129d2565b5f54610100900460ff1661287e5760405162461bcd60e51b81526004016108d8906136f2565b61012b805460ff19169055565b60605f5f856001600160a01b0316856040516128a79190613758565b5f60405180830381855af49150503d805f81146128df576040519150601f19603f3d011682016040523d82523d5f602084013e6128e4565b606091505b50915091506128f586838387612a01565b9695505050505050565b5f612953826040518060400160405280602081526020017f5361666545524332303a206c6f772d6c6576656c2063616c6c206661696c6564815250856001600160a01b0316612a799092919063ffffffff16565b905080515f148061297357508080602001905181019061297391906131dd565b611ce55760405162461bcd60e51b815260206004820152602a60248201527f5361666545524332303a204552433230206f7065726174696f6e20646964206e6044820152691bdd081cdd58d8d9595960b21b60648201526084016108d8565b5f54610100900460ff166129f85760405162461bcd60e51b81526004016108d8906136f2565b610fd433611e21565b60608315612a6f5782515f03612a68576001600160a01b0385163b612a685760405162461bcd60e51b815260206004820152601d60248201527f416464726573733a2063616c6c20746f206e6f6e2d636f6e747261637400000060448201526064016108d8565b5081610fe3565b610fe38383612a87565b6060610fe384845f85612ab1565b815115612a975781518083602001fd5b8060405162461bcd60e51b81526004016108d8919061376e565b606082471015612b125760405162461bcd60e51b815260206004820152602660248201527f416464726573733a20696e73756666696369656e742062616c616e636520666f6044820152651c8818d85b1b60d21b60648201526084016108d8565b5f5f866001600160a01b03168587604051612b2d9190613758565b5f6040518083038185875af1925050503d805f8114612b67576040519150601f19603f3d011682016040523d82523d5f602084013e612b6c565b606091505b5091509150611f5587838387612a01565b60405180606001604052805f81526020015f6001600160401b03168152602001612bb860405180604001604052805f81526020015f81525090565b905290565b5f5f83601f840112612bcd575f5ffd5b5081356001600160401b03811115612be3575f5ffd5b602083019150836020828501011115612bfa575f5ffd5b9250929050565b5f5f60208385031215612c12575f5ffd5b82356001600160401b03811115612c27575f5ffd5b612c3385828601612bbd565b90969095509350505050565b5f60608284031215612c4f575f5ffd5b50919050565b6001600160a01b0381168114610cea575f5ffd5b5f5f5f5f5f5f5f60e0888a031215612c7f575f5ffd5b612c898989612c3f565b96506060880135955060808801356001600160401b03811115612caa575f5ffd5b612cb68a828b01612bbd565b90965094505060a0880135612cca81612c55565b925060c08801356001600160401b03811115612ce4575f5ffd5b612cf08a828b01612bbd565b989b979a50959850939692959293505050565b6001600160401b0381168114610cea575f5ffd5b5f60208284031215612d27575f5ffd5b81356127c981612d03565b815181526020808301519082015260408101610bf8565b803563ffffffff81168114612d5c575f5ffd5b919050565b5f5f60408385031215612d72575f5ffd5b612d7b83612d49565b946020939093013593505050565b5f60208284031215612d99575f5ffd5b81356127c981612c55565b634e487b7160e01b5f52604160045260245ffd5b604051606081016001600160401b0381118282101715612dda57612dda612da4565b60405290565b604051601f8201601f191681016001600160401b0381118282101715612e0857612e08612da4565b604052919050565b5f5f60408385031215612e21575f5ffd5b8235612e2c81612c55565b915060208301356001600160401b03811115612e46575f5ffd5b8301601f81018513612e56575f5ffd5b80356001600160401b03811115612e6f57612e6f612da4565b612e82601f8201601f1916602001612de0565b818152866020838501011115612e96575f5ffd5b816020840160208301375f602083830101528093505050509250929050565b5f60208284031215612ec5575f5ffd5b5035919050565b5f5f5f5f60a08587031215612edf575f5ffd5b612ee98686612c3f565b935060608501356001600160401b03811115612f03575f5ffd5b612f0f87828801612bbd565b9094509250506080850135612f2381612c55565b939692955090935050565b5f608082019050825182526001600160401b0360208401511660208301526040830151612f68604084018280518252602090810151910152565b5092915050565b8015158114610cea575f5ffd5b5f5f5f5f5f60c08688031215612f90575f5ffd5b8535612f9b81612f6f565b94506020860135612fab81612d03565b9350612fba8760408801612c3f565b925060a08601356001600160401b03811115612fd4575f5ffd5b612fe088828901612bbd565b969995985093965092949392505050565b5f60208284031215613001575f5ffd5b6127c982612d49565b5f5f5f5f5f60a0868803121561301e575f5ffd5b853561302981612c55565b9450602086013561303981612c55565b9350604086013561304981612c55565b9250606086013561305981612c55565b9150608086013561306981612c55565b809150509295509295909350565b5f5f5f5f5f5f5f5f5f6101208a8c031215613090575f5ffd5b893561309b81612c55565b98506130a960208b01612d49565b975060408a01356130b981612c55565b965060608a01356130c981612c55565b955060808a01356130d981612c55565b945060a08a01356130e981612c55565b935060c08a01356130f981612c55565b925060e08a013561310981612c55565b91506101008a013561311a81612c55565b809150509295985092959850929598565b5f6060828403121561313b575f5ffd5b6127c98383612c3f565b5f6104008284031215613156575f5ffd5b5f83601f840112613165575f5ffd5b505f8061040061317481612de0565b9250829150840185811115613187575f5ffd5b845b818110156131a1578035845260209384019301613189565b509095945050505050565b610400810181835f5b60208110156131d45781518352602092830192909101906001016131b5565b50505092915050565b5f602082840312156131ed575f5ffd5b81516127c981612f6f565b6020808252602c908201527f46756e6374696f6e206d7573742062652063616c6c6564207468726f7567682060408201526b19195b1959d85d1958d85b1b60a21b606082015260800190565b6020808252602c908201527f46756e6374696f6e206d7573742062652063616c6c6564207468726f7567682060408201526b6163746976652070726f787960a01b606082015260800190565b5f602082840312156132a0575f5ffd5b5051919050565b5f81518084528060208401602086015e5f602082860101526020601f19601f83011685010191505092915050565b828152604060208201525f610fe360408301846132a7565b5f61044082840312156132fe575f5ffd5b5f83601f84011261330d575f5ffd5b505f8061044061317481612de0565b610440810181835f5b60228110156131d4578151835260209283019290910190600101613325565b5f6060828403128015613355575f5ffd5b5061335e612db8565b823561336981612d03565b8152602083810135908201526040928301359281019290925250919050565b5f82601f830112613397575f5ffd5b5f6133a26040612de0565b90508060408401858111156133b5575f5ffd5b845b818110156133cf5780358352602092830192016133b7565b509195945050505050565b5f5f5f5f61016085870312156133ee575f5ffd5b6133f88686613388565b935085605f860112613408575f5ffd5b604061341381612de0565b8060c0880189811115613424575f5ffd5b604089015b8181101561344a5761343b8b82613388565b84526020909301928401613429565b508196506134588a82613388565b95505050505061010085015f87601f830112613472575f5ffd5b5f61347d6060612de0565b905080606084018a811115613490575f5ffd5b5b808510156134ac578435825260209485019490910190613491565b509699959850939650929450505050565b805f5b60028110156124605781518452602093840193909101906001016134c0565b61016081016134ee82876134bd565b60408201855f5b600281101561351f576135098383516134bd565b60409290920191602091909101906001016134f5565b50505061352f60c08301856134bd565b6101008201835f5b6003811015613556578151835260209283019290910190600101613537565b50505095945050505050565b5f5f60408385031215613573575f5ffd5b82359150602083013561358581612d03565b809150509250929050565b6040815263ffffffff8351166040820152602083015160608201525f604084015160a060808401526135c560e08401826132a7565b90506060850151603f198483030160a08501526135e282826132a7565b60809690960151151560c08501525050506001600160a01b039190911660209091015290565b5f60408284031215613618575f5ffd5b604080519081016001600160401b038111828210171561363a5761363a612da4565b604052825181526020928301519281019290925250919050565b5f60408284031215613664575f5ffd5b6127c98383613608565b5f608082840312801561367f575f5ffd5b50613688612db8565b82518152602083015161369a81612d03565b60208201526136ac8460408501613608565b60408201529392505050565b634e487b7160e01b5f52601160045260245ffd5b81810381811115610bf857610bf86136b8565b80820180821115610bf857610bf86136b8565b6020808252602b908201527f496e697469616c697a61626c653a20636f6e7472616374206973206e6f74206960408201526a6e697469616c697a696e6760a81b606082015260800190565b5f6020828403121561374d575f5ffd5b81516127c981612c55565b5f82518060208501845e5f920191825250919050565b602081525f6127c960208301846132a756fe360894a13ba1a3210667c828492db98dca3e2076cc3735a920a3ca505d382bbc416464726573733a206c6f772d6c6576656c2064656c65676174652063616c6c206661696c6564a26469706673582212206f88a3fa0cae44a32a1ce991797bd3a0d0f8deb5fa245467d616818367cf5b1c64736f6c634300081e0033","linkReferences":{}},"methodIdentifiers":{"HUB_EID()":"d1926528","TOKEN()":"82bfefc8","allowInitializePath((uint32,bytes32,uint64))":"ff7bd03d","deactivateEmergency()":"fa686948","endpoint()":"5e280f11","globalTransferRoots(uint64)":"c172e9e3","initialize(address,uint32,address,address,address,address,address,address,address)":"e3057689","isComposeMsgSender((uint32,bytes32,uint64),bytes,address)":"82413eac","isUpToDate()":"442bde04","latestAggSeq()":"a97f176f","latestProvedIndex()":"9f487dbd","latestRelayedIndex()":"ff53cc04","latestReservedIndex()":"e9debe05","lzReceive((uint32,bytes32,uint64),bytes32,bytes,address,bytes)":"13137d65","nextNonce(uint32,bytes32)":"7d25a05e","oAppVersion()":"17442b70","owner()":"8da5cb5b","paused()":"5c975abb","peers(uint32)":"bb0b6a53","proveTransferRoot(bytes)":"11d29723","provedTransferRoots(uint64)":"1bb29877","proxiableUUID()":"52d1902d","quoteRelay(bytes)":"26efeb2b","relayTransferRoot(bytes)":"86106a29","renounceOwnership()":"715018a6","reserveHashChain()":"63373bdc","reservedHashChains(uint64)":"e2910dd3","rootDecider()":"8fe64dd4","setDelegate(address)":"ca5eb5e1","setPeer(uint32,bytes32)":"3400288b","setVerifiers(address,address,address,address,address)":"be6a2c15","singleTeleport(bool,uint64,(uint64,bytes32,bytes32),bytes)":"d4d12244","singleWithdrawGlobalVerifier()":"4a80034f","singleWithdrawLocalVerifier()":"755d89f2","teleport(bool,uint64,(uint64,bytes32,bytes32),bytes)":"9854265f","totalTeleported(uint256)":"69cc1d27","transferOwnership(address)":"f2fde38b","upgradeTo(address)":"3659cfe6","upgradeToAndCall(address,bytes)":"4f1ef286","withdrawGlobalDecider()":"d22f96df","withdrawLocalDecider()":"ca466380"},"id":80}